{
  "_format": "hh-sol-artifact-1",
  "contractName": "Feedback",
  "sourceName": "contracts/Feedback.sol",
  "abi": [
    {
      "inputs": [
        {
          "internalType": "contract ISemaphoreVerifier",
          "name": "_verifier",
          "type": "address"
        }
      ],
      "stateMutability": "nonpayable",
      "type": "constructor"
    },
    {
      "inputs": [],
      "name": "Semaphore__CallerIsNotTheGroupAdmin",
      "type": "error"
    },
    {
      "inputs": [],
      "name": "Semaphore__GroupAlreadyExists",
      "type": "error"
    },
    {
      "inputs": [],
      "name": "Semaphore__GroupDoesNotExist",
      "type": "error"
    },
    {
      "inputs": [],
      "name": "Semaphore__MerkleTreeDepthIsNotSupported",
      "type": "error"
    },
    {
      "inputs": [],
      "name": "Semaphore__MerkleTreeRootIsExpired",
      "type": "error"
    },
    {
      "inputs": [],
      "name": "Semaphore__MerkleTreeRootIsNotPartOfTheGroup",
      "type": "error"
    },
    {
      "inputs": [],
      "name": "Semaphore__YouAreUsingTheSameNillifierTwice",
      "type": "error"
    },
    {
      "anonymous": false,
      "inputs": [
        {
          "indexed": true,
          "internalType": "uint256",
          "name": "groupId",
          "type": "uint256"
        },
        {
          "indexed": true,
          "internalType": "address",
          "name": "oldAdmin",
          "type": "address"
        },
        {
          "indexed": true,
          "internalType": "address",
          "name": "newAdmin",
          "type": "address"
        }
      ],
      "name": "GroupAdminUpdated",
      "type": "event"
    },
    {
      "anonymous": false,
      "inputs": [
        {
          "indexed": true,
          "internalType": "uint256",
          "name": "groupId",
          "type": "uint256"
        },
        {
          "indexed": false,
          "internalType": "uint256",
          "name": "merkleTreeDepth",
          "type": "uint256"
        },
        {
          "indexed": false,
          "internalType": "uint256",
          "name": "zeroValue",
          "type": "uint256"
        }
      ],
      "name": "GroupCreated",
      "type": "event"
    },
    {
      "anonymous": false,
      "inputs": [
        {
          "indexed": true,
          "internalType": "uint256",
          "name": "groupId",
          "type": "uint256"
        },
        {
          "indexed": false,
          "internalType": "uint256",
          "name": "oldMerkleTreeDuration",
          "type": "uint256"
        },
        {
          "indexed": false,
          "internalType": "uint256",
          "name": "newMerkleTreeDuration",
          "type": "uint256"
        }
      ],
      "name": "GroupMerkleTreeDurationUpdated",
      "type": "event"
    },
    {
      "anonymous": false,
      "inputs": [
        {
          "indexed": true,
          "internalType": "uint256",
          "name": "groupId",
          "type": "uint256"
        },
        {
          "indexed": false,
          "internalType": "uint256",
          "name": "index",
          "type": "uint256"
        },
        {
          "indexed": false,
          "internalType": "uint256",
          "name": "identityCommitment",
          "type": "uint256"
        },
        {
          "indexed": false,
          "internalType": "uint256",
          "name": "merkleTreeRoot",
          "type": "uint256"
        }
      ],
      "name": "MemberAdded",
      "type": "event"
    },
    {
      "anonymous": false,
      "inputs": [
        {
          "indexed": true,
          "internalType": "uint256",
          "name": "groupId",
          "type": "uint256"
        },
        {
          "indexed": false,
          "internalType": "uint256",
          "name": "index",
          "type": "uint256"
        },
        {
          "indexed": false,
          "internalType": "uint256",
          "name": "identityCommitment",
          "type": "uint256"
        },
        {
          "indexed": false,
          "internalType": "uint256",
          "name": "merkleTreeRoot",
          "type": "uint256"
        }
      ],
      "name": "MemberRemoved",
      "type": "event"
    },
    {
      "anonymous": false,
      "inputs": [
        {
          "indexed": true,
          "internalType": "uint256",
          "name": "groupId",
          "type": "uint256"
        },
        {
          "indexed": false,
          "internalType": "uint256",
          "name": "index",
          "type": "uint256"
        },
        {
          "indexed": false,
          "internalType": "uint256",
          "name": "identityCommitment",
          "type": "uint256"
        },
        {
          "indexed": false,
          "internalType": "uint256",
          "name": "newIdentityCommitment",
          "type": "uint256"
        },
        {
          "indexed": false,
          "internalType": "uint256",
          "name": "merkleTreeRoot",
          "type": "uint256"
        }
      ],
      "name": "MemberUpdated",
      "type": "event"
    },
    {
      "anonymous": false,
      "inputs": [
        {
          "indexed": true,
          "internalType": "uint256",
          "name": "groupId",
          "type": "uint256"
        },
        {
          "indexed": true,
          "internalType": "uint256",
          "name": "merkleTreeRoot",
          "type": "uint256"
        },
        {
          "indexed": false,
          "internalType": "uint256",
          "name": "nullifierHash",
          "type": "uint256"
        },
        {
          "indexed": true,
          "internalType": "uint256",
          "name": "externalNullifier",
          "type": "uint256"
        },
        {
          "indexed": false,
          "internalType": "uint256",
          "name": "signal",
          "type": "uint256"
        }
      ],
      "name": "ProofVerified",
      "type": "event"
    },
    {
      "inputs": [
        {
          "internalType": "uint256",
          "name": "groupId",
          "type": "uint256"
        },
        {
          "internalType": "uint256",
          "name": "identityCommitment",
          "type": "uint256"
        }
      ],
      "name": "addMember",
      "outputs": [],
      "stateMutability": "nonpayable",
      "type": "function"
    },
    {
      "inputs": [
        {
          "internalType": "uint256",
          "name": "groupId",
          "type": "uint256"
        },
        {
          "internalType": "uint256[]",
          "name": "identityCommitments",
          "type": "uint256[]"
        }
      ],
      "name": "addMembers",
      "outputs": [],
      "stateMutability": "nonpayable",
      "type": "function"
    },
    {
      "inputs": [
        {
          "internalType": "uint256",
          "name": "groupId",
          "type": "uint256"
        },
        {
          "internalType": "uint256",
          "name": "merkleTreeDepth",
          "type": "uint256"
        },
        {
          "internalType": "address",
          "name": "admin",
          "type": "address"
        },
        {
          "internalType": "uint256",
          "name": "merkleTreeDuration",
          "type": "uint256"
        }
      ],
      "name": "createGroup",
      "outputs": [],
      "stateMutability": "nonpayable",
      "type": "function"
    },
    {
      "inputs": [
        {
          "internalType": "uint256",
          "name": "groupId",
          "type": "uint256"
        },
        {
          "internalType": "uint256",
          "name": "merkleTreeDepth",
          "type": "uint256"
        },
        {
          "internalType": "address",
          "name": "admin",
          "type": "address"
        }
      ],
      "name": "createGroup",
      "outputs": [],
      "stateMutability": "nonpayable",
      "type": "function"
    },
    {
      "inputs": [
        {
          "internalType": "uint256",
          "name": "groupId",
          "type": "uint256"
        }
      ],
      "name": "getMerkleTreeDepth",
      "outputs": [
        {
          "internalType": "uint256",
          "name": "",
          "type": "uint256"
        }
      ],
      "stateMutability": "view",
      "type": "function"
    },
    {
      "inputs": [
        {
          "internalType": "uint256",
          "name": "groupId",
          "type": "uint256"
        }
      ],
      "name": "getMerkleTreeRoot",
      "outputs": [
        {
          "internalType": "uint256",
          "name": "",
          "type": "uint256"
        }
      ],
      "stateMutability": "view",
      "type": "function"
    },
    {
      "inputs": [
        {
          "internalType": "uint256",
          "name": "groupId",
          "type": "uint256"
        }
      ],
      "name": "getNumberOfMerkleTreeLeaves",
      "outputs": [
        {
          "internalType": "uint256",
          "name": "",
          "type": "uint256"
        }
      ],
      "stateMutability": "view",
      "type": "function"
    },
    {
      "inputs": [
        {
          "internalType": "uint256",
          "name": "",
          "type": "uint256"
        }
      ],
      "name": "groups",
      "outputs": [
        {
          "internalType": "address",
          "name": "admin",
          "type": "address"
        },
        {
          "internalType": "uint256",
          "name": "merkleTreeDuration",
          "type": "uint256"
        }
      ],
      "stateMutability": "view",
      "type": "function"
    },
    {
      "inputs": [
        {
          "internalType": "uint256",
          "name": "groupId",
          "type": "uint256"
        },
        {
          "internalType": "uint256",
          "name": "identityCommitment",
          "type": "uint256"
        },
        {
          "internalType": "uint256[]",
          "name": "proofSiblings",
          "type": "uint256[]"
        },
        {
          "internalType": "uint8[]",
          "name": "proofPathIndices",
          "type": "uint8[]"
        }
      ],
      "name": "removeMember",
      "outputs": [],
      "stateMutability": "nonpayable",
      "type": "function"
    },
    {
      "inputs": [
        {
          "internalType": "uint256",
          "name": "groupId",
          "type": "uint256"
        },
        {
          "internalType": "address",
          "name": "newAdmin",
          "type": "address"
        }
      ],
      "name": "updateGroupAdmin",
      "outputs": [],
      "stateMutability": "nonpayable",
      "type": "function"
    },
    {
      "inputs": [
        {
          "internalType": "uint256",
          "name": "groupId",
          "type": "uint256"
        },
        {
          "internalType": "uint256",
          "name": "newMerkleTreeDuration",
          "type": "uint256"
        }
      ],
      "name": "updateGroupMerkleTreeDuration",
      "outputs": [],
      "stateMutability": "nonpayable",
      "type": "function"
    },
    {
      "inputs": [
        {
          "internalType": "uint256",
          "name": "groupId",
          "type": "uint256"
        },
        {
          "internalType": "uint256",
          "name": "identityCommitment",
          "type": "uint256"
        },
        {
          "internalType": "uint256",
          "name": "newIdentityCommitment",
          "type": "uint256"
        },
        {
          "internalType": "uint256[]",
          "name": "proofSiblings",
          "type": "uint256[]"
        },
        {
          "internalType": "uint8[]",
          "name": "proofPathIndices",
          "type": "uint8[]"
        }
      ],
      "name": "updateMember",
      "outputs": [],
      "stateMutability": "nonpayable",
      "type": "function"
    },
    {
      "inputs": [],
      "name": "verifier",
      "outputs": [
        {
          "internalType": "contract ISemaphoreVerifier",
          "name": "",
          "type": "address"
        }
      ],
      "stateMutability": "view",
      "type": "function"
    },
    {
      "inputs": [
        {
          "internalType": "uint256",
          "name": "groupId",
          "type": "uint256"
        },
        {
          "internalType": "uint256",
          "name": "merkleTreeRoot",
          "type": "uint256"
        },
        {
          "internalType": "uint256",
          "name": "signal",
          "type": "uint256"
        },
        {
          "internalType": "uint256",
          "name": "nullifierHash",
          "type": "uint256"
        },
        {
          "internalType": "uint256",
          "name": "externalNullifier",
          "type": "uint256"
        },
        {
          "internalType": "uint256[8]",
          "name": "proof",
          "type": "uint256[8]"
        }
      ],
      "name": "verifyProof",
      "outputs": [],
      "stateMutability": "nonpayable",
      "type": "function"
    }
  ],
  "bytecode": "0x60806040523480156200001157600080fd5b50604051620009e5380380620009e5833981810160405281019062000037919062000286565b826000806101000a81548173ffffffffffffffffffffffffffffffffffffffff021916908373ffffffffffffffffffffffffffffffffffffffff1602179055508160018190555080600290805190602001906200009692919062000136565b5060008054906101000a900473ffffffffffffffffffffffffffffffffffffffff1673ffffffffffffffffffffffffffffffffffffffff16639c1121416001546014306040518463ffffffff1660e01b8152600401620000f99392919062000328565b600060405180830381600087803b1580156200011457600080fd5b505af115801562000129573d6000803e3d6000fd5b505050505050506200055b565b82805462000144906200044c565b90600052602060002090601f016020900481019282620001685760008555620001b4565b82601f106200018357805160ff1916838001178555620001b4565b82800160010185558215620001b4579182015b82811115620001b357825182559160200191906001019062000196565b5b509050620001c39190620001c7565b5090565b5b80821115620001e2576000816000905550600101620001c8565b5090565b6000620001fd620001f7846200038e565b62000365565b9050828152602081018484840111156200021657600080fd5b6200022384828562000416565b509392505050565b6000815190506200023c8162000527565b92915050565b600082601f8301126200025457600080fd5b815162000266848260208601620001e6565b91505092915050565b600081519050620002808162000541565b92915050565b6000806000606084860312156200029c57600080fd5b6000620002ac868287016200022b565b9350506020620002bf868287016200026f565b925050604084015167ffffffffffffffff811115620002dd57600080fd5b620002eb8682870162000242565b9150509250925092565b6200030081620003c4565b82525050565b620003118162000402565b82525050565b6200032281620003f8565b82525050565b60006060820190506200033f600083018662000317565b6200034e602083018562000306565b6200035d6040830184620002f5565b949350505050565b60006200037162000384565b90506200037f828262000482565b919050565b6000604051905090565b600067ffffffffffffffff821115620003ac57620003ab620004e7565b5b620003b78262000516565b9050602081019050919050565b6000620003d182620003d8565b9050919050565b600073ffffffffffffffffffffffffffffffffffffffff82169050919050565b6000819050919050565b60006200040f82620003f8565b9050919050565b60005b838110156200043657808201518184015260208101905062000419565b8381111562000446576000848401525b50505050565b600060028204905060018216806200046557607f821691505b602082108114156200047c576200047b620004b8565b5b50919050565b6200048d8262000516565b810181811067ffffffffffffffff82111715620004af57620004ae620004e7565b5b80604052505050565b7f4e487b7100000000000000000000000000000000000000000000000000000000600052602260045260246000fd5b7f4e487b7100000000000000000000000000000000000000000000000000000000600052604160045260246000fd5b6000601f19601f8301169050919050565b6200053281620003c4565b81146200053e57600080fd5b50565b6200054c81620003f8565b81146200055857600080fd5b50565b61047a806200056b6000396000f3fe608060405234801561001057600080fd5b506004361061004c5760003560e01c80637b5d253414610051578063a0f44c921461006f578063d18ed1e91461008d578063eed02e4b146100a9575b600080fd5b6100596100c5565b604051610066919061030f565b60405180910390f35b6100776100e9565b604051610084919061032a565b60405180910390f35b6100a760048036038101906100a2919061027c565b6100ef565b005b6100c360048036038101906100be9190610253565b61018e565b005b60008054906101000a900473ffffffffffffffffffffffffffffffffffffffff1681565b60015481565b60008054906101000a900473ffffffffffffffffffffffffffffffffffffffff1673ffffffffffffffffffffffffffffffffffffffff16633bc778e3600154858786600154876040518763ffffffff1660e01b81526004016101569695949392919061036e565b600060405180830381600087803b15801561017057600080fd5b505af1158015610184573d6000803e3d6000fd5b5050505050505050565b60008054906101000a900473ffffffffffffffffffffffffffffffffffffffff1673ffffffffffffffffffffffffffffffffffffffff16631783efc3600154836040518363ffffffff1660e01b81526004016101eb929190610345565b600060405180830381600087803b15801561020557600080fd5b505af1158015610219573d6000803e3d6000fd5b5050505050565b60008190508260206008028201111561023857600080fd5b92915050565b60008135905061024d8161042d565b92915050565b60006020828403121561026557600080fd5b60006102738482850161023e565b91505092915050565b600080600080610160858703121561029357600080fd5b60006102a18782880161023e565b94505060206102b28782880161023e565b93505060406102c38782880161023e565b92505060606102d487828801610220565b91505092959194509250565b6102ed610100838361041e565b5050565b6102fa816103fa565b82525050565b610309816103f0565b82525050565b600060208201905061032460008301846102f1565b92915050565b600060208201905061033f6000830184610300565b92915050565b600060408201905061035a6000830185610300565b6103676020830184610300565b9392505050565b60006101a0820190506103846000830189610300565b6103916020830188610300565b61039e6040830187610300565b6103ab6060830186610300565b6103b86080830185610300565b6103c560a08301846102e0565b979650505050505050565b600073ffffffffffffffffffffffffffffffffffffffff82169050919050565b6000819050919050565b60006104058261040c565b9050919050565b6000610417826103d0565b9050919050565b82818337600083830152505050565b610436816103f0565b811461044157600080fd5b5056fea2646970667358221220912eb83253fb5f83b5ca9ec1fe79fc7b0ac153ea554e1b58a6151b6a509dd76864736f6c63430008040033",
  "linkReferences": {},
  "deployedLinkReferences": {}
}