{
  "_format": "hh-sol-artifact-1",
  "contractName": "Feedback",
  "sourceName": "contracts/Feedback.sol",
  "abi": [
    {
      "inputs": [
        {
          "internalType": "address",
          "name": "semaphoreAddress",
          "type": "address"
        },
        {
          "internalType": "uint256",
          "name": "_groupId",
          "type": "uint256"
        }
      ],
      "stateMutability": "nonpayable",
      "type": "constructor"
    },
    {
      "anonymous": false,
      "inputs": [
        {
          "indexed": false,
          "internalType": "bytes32",
          "name": "greeting",
          "type": "bytes32"
        }
      ],
      "name": "NewGreeting",
      "type": "event"
    },
    {
      "anonymous": false,
      "inputs": [
        {
          "indexed": false,
          "internalType": "uint256",
          "name": "identityCommitment",
          "type": "uint256"
        },
        {
          "indexed": false,
          "internalType": "bytes32",
          "name": "username",
          "type": "bytes32"
        }
      ],
      "name": "NewUser",
      "type": "event"
    },
    {
      "inputs": [
        {
          "internalType": "bytes32",
          "name": "greeting",
          "type": "bytes32"
        },
        {
          "internalType": "uint256",
          "name": "merkleTreeRoot",
          "type": "uint256"
        },
        {
          "internalType": "uint256",
          "name": "nullifierHash",
          "type": "uint256"
        },
        {
          "internalType": "uint256[8]",
          "name": "proof",
          "type": "uint256[8]"
        }
      ],
      "name": "greet",
      "outputs": [],
      "stateMutability": "nonpayable",
      "type": "function"
    },
    {
      "inputs": [
        {
          "internalType": "uint256",
          "name": "identityCommitment",
          "type": "uint256"
        },
        {
          "internalType": "bytes32",
          "name": "username",
          "type": "bytes32"
        }
      ],
      "name": "joinGroup",
      "outputs": [],
      "stateMutability": "nonpayable",
      "type": "function"
    },
    {
      "inputs": [],
      "name": "semaphore",
      "outputs": [
        {
          "internalType": "contract ISemaphore",
          "name": "",
          "type": "address"
        }
      ],
      "stateMutability": "view",
      "type": "function"
    }
  ],
  "bytecode": "0x608060405234801561001057600080fd5b506040516107bf3803806107bf8339818101604052810190610032919061013c565b816000806101000a81548173ffffffffffffffffffffffffffffffffffffffff021916908373ffffffffffffffffffffffffffffffffffffffff1602179055508060018190555060008054906101000a900473ffffffffffffffffffffffffffffffffffffffff1673ffffffffffffffffffffffffffffffffffffffff16639c1121416001546014306040518463ffffffff1660e01b81526004016100d9939291906101a5565b600060405180830381600087803b1580156100f357600080fd5b505af1158015610107573d6000803e3d6000fd5b505050505050610258565b6000815190506101218161022a565b92915050565b60008151905061013681610241565b92915050565b6000806040838503121561014f57600080fd5b600061015d85828601610112565b925050602061016e85828601610127565b9150509250929050565b610181816101dc565b82525050565b61019081610218565b82525050565b61019f8161020e565b82525050565b60006060820190506101ba6000830186610196565b6101c76020830185610187565b6101d46040830184610178565b949350505050565b60006101e7826101ee565b9050919050565b600073ffffffffffffffffffffffffffffffffffffffff82169050919050565b6000819050919050565b60006102238261020e565b9050919050565b610233816101dc565b811461023e57600080fd5b50565b61024a8161020e565b811461025557600080fd5b50565b610558806102676000396000f3fe608060405234801561001057600080fd5b50600436106100415760003560e01c80637b5d253414610046578063a3867d9114610064578063a3a8e3c514610080575b600080fd5b61004e61009c565b60405161005b91906103be565b60405180910390f35b61007e60048036038101906100799190610329565b6100c0565b005b61009a600480360381019061009591906102c5565b6101a4565b005b60008054906101000a900473ffffffffffffffffffffffffffffffffffffffff1681565b60008054906101000a900473ffffffffffffffffffffffffffffffffffffffff1673ffffffffffffffffffffffffffffffffffffffff16631783efc3600154846040518363ffffffff1660e01b815260040161011d929190610402565b600060405180830381600087803b15801561013757600080fd5b505af115801561014b573d6000803e3d6000fd5b505050508060026000848152602001908152602001600020819055507fa50a3b4d29437818306d1859dff6fb2b1884a4f487bd1d91a8cc026ac4c9453782826040516101989291906103d9565b60405180910390a15050565b60008054906101000a900473ffffffffffffffffffffffffffffffffffffffff1673ffffffffffffffffffffffffffffffffffffffff16633bc778e3600154858760001c86600154876040518763ffffffff1660e01b815260040161020e9695949392919061042b565b600060405180830381600087803b15801561022857600080fd5b505af115801561023c573d6000803e3d6000fd5b505050507fdca4fe235351d51f8e3444599c9a1afc6d12397dcdc4fd5df11bb6cfe0eb5a778460405161026f91906103a3565b60405180910390a150505050565b60008190508260206008028201111561029557600080fd5b92915050565b6000813590506102aa816104f4565b92915050565b6000813590506102bf8161050b565b92915050565b60008060008061016085870312156102dc57600080fd5b60006102ea8782880161029b565b94505060206102fb878288016102b0565b935050604061030c878288016102b0565b925050606061031d8782880161027d565b91505092959194509250565b6000806040838503121561033c57600080fd5b600061034a858286016102b0565b925050602061035b8582860161029b565b9150509250929050565b61037261010083836104e5565b5050565b61037f8161048d565b82525050565b61038e816104c1565b82525050565b61039d816104b7565b82525050565b60006020820190506103b86000830184610376565b92915050565b60006020820190506103d36000830184610385565b92915050565b60006040820190506103ee6000830185610394565b6103fb6020830184610376565b9392505050565b60006040820190506104176000830185610394565b6104246020830184610394565b9392505050565b60006101a0820190506104416000830189610394565b61044e6020830188610394565b61045b6040830187610394565b6104686060830186610394565b6104756080830185610394565b61048260a0830184610365565b979650505050505050565b6000819050919050565b600073ffffffffffffffffffffffffffffffffffffffff82169050919050565b6000819050919050565b60006104cc826104d3565b9050919050565b60006104de82610497565b9050919050565b82818337600083830152505050565b6104fd8161048d565b811461050857600080fd5b50565b610514816104b7565b811461051f57600080fd5b5056fea2646970667358221220baf823cf64e65fd82d72e54afb67348bbd8719b60111e664366a94db8f9e779964736f6c63430008040033",
  "linkReferences": {},
  "deployedLinkReferences": {}
}