{
  "_format": "hh-sol-artifact-1",
  "contractName": "SemaphoreCommunities",
  "sourceName": "contracts/SemaphoreCommunities.sol",
  "abi": [
    {
      "inputs": [
        {
          "internalType": "contract ISemaphoreVerifier",
          "name": "_verifier",
          "type": "address"
        }
      ],
      "stateMutability": "nonpayable",
      "type": "constructor"
    },
    {
      "inputs": [],
      "name": "Semaphore__CallerIsNotTheEditor",
      "type": "error"
    },
    {
      "inputs": [],
      "name": "Semaphore__GroupAlreadyExists",
      "type": "error"
    },
    {
      "inputs": [],
      "name": "Semaphore__GroupDoesNotExist",
      "type": "error"
    },
    {
      "inputs": [],
      "name": "Semaphore__MerkleTreeDepthIsNotSupported",
      "type": "error"
    },
    {
      "anonymous": false,
      "inputs": [
        {
          "indexed": false,
          "internalType": "uint256",
          "name": "entityId",
          "type": "uint256"
        },
        {
          "indexed": false,
          "internalType": "string",
          "name": "groupName",
          "type": "string"
        },
        {
          "indexed": true,
          "internalType": "address",
          "name": "editor",
          "type": "address"
        }
      ],
      "name": "EntityCreated",
      "type": "event"
    },
    {
      "anonymous": false,
      "inputs": [
        {
          "indexed": true,
          "internalType": "uint256",
          "name": "groupId",
          "type": "uint256"
        },
        {
          "indexed": false,
          "internalType": "uint256",
          "name": "merkleTreeDepth",
          "type": "uint256"
        },
        {
          "indexed": false,
          "internalType": "uint256",
          "name": "zeroValue",
          "type": "uint256"
        }
      ],
      "name": "GroupCreated",
      "type": "event"
    },
    {
      "anonymous": false,
      "inputs": [
        {
          "indexed": true,
          "internalType": "uint256",
          "name": "entityId",
          "type": "uint256"
        },
        {
          "indexed": false,
          "internalType": "uint256",
          "name": "leak",
          "type": "uint256"
        }
      ],
      "name": "LeakPublished",
      "type": "event"
    },
    {
      "anonymous": false,
      "inputs": [
        {
          "indexed": true,
          "internalType": "uint256",
          "name": "groupId",
          "type": "uint256"
        },
        {
          "indexed": false,
          "internalType": "uint256",
          "name": "index",
          "type": "uint256"
        },
        {
          "indexed": false,
          "internalType": "uint256",
          "name": "identityCommitment",
          "type": "uint256"
        },
        {
          "indexed": false,
          "internalType": "uint256",
          "name": "merkleTreeRoot",
          "type": "uint256"
        }
      ],
      "name": "MemberAdded",
      "type": "event"
    },
    {
      "anonymous": false,
      "inputs": [
        {
          "indexed": true,
          "internalType": "uint256",
          "name": "groupId",
          "type": "uint256"
        },
        {
          "indexed": false,
          "internalType": "uint256",
          "name": "index",
          "type": "uint256"
        },
        {
          "indexed": false,
          "internalType": "uint256",
          "name": "identityCommitment",
          "type": "uint256"
        },
        {
          "indexed": false,
          "internalType": "uint256",
          "name": "merkleTreeRoot",
          "type": "uint256"
        }
      ],
      "name": "MemberRemoved",
      "type": "event"
    },
    {
      "anonymous": false,
      "inputs": [
        {
          "indexed": true,
          "internalType": "uint256",
          "name": "groupId",
          "type": "uint256"
        },
        {
          "indexed": false,
          "internalType": "uint256",
          "name": "index",
          "type": "uint256"
        },
        {
          "indexed": false,
          "internalType": "uint256",
          "name": "identityCommitment",
          "type": "uint256"
        },
        {
          "indexed": false,
          "internalType": "uint256",
          "name": "newIdentityCommitment",
          "type": "uint256"
        },
        {
          "indexed": false,
          "internalType": "uint256",
          "name": "merkleTreeRoot",
          "type": "uint256"
        }
      ],
      "name": "MemberUpdated",
      "type": "event"
    },
    {
      "anonymous": false,
      "inputs": [
        {
          "indexed": true,
          "internalType": "bytes32",
          "name": "role",
          "type": "bytes32"
        },
        {
          "indexed": true,
          "internalType": "bytes32",
          "name": "previousAdminRole",
          "type": "bytes32"
        },
        {
          "indexed": true,
          "internalType": "bytes32",
          "name": "newAdminRole",
          "type": "bytes32"
        }
      ],
      "name": "RoleAdminChanged",
      "type": "event"
    },
    {
      "anonymous": false,
      "inputs": [
        {
          "indexed": true,
          "internalType": "bytes32",
          "name": "role",
          "type": "bytes32"
        },
        {
          "indexed": true,
          "internalType": "address",
          "name": "account",
          "type": "address"
        },
        {
          "indexed": true,
          "internalType": "address",
          "name": "sender",
          "type": "address"
        }
      ],
      "name": "RoleGranted",
      "type": "event"
    },
    {
      "anonymous": false,
      "inputs": [
        {
          "indexed": true,
          "internalType": "bytes32",
          "name": "role",
          "type": "bytes32"
        },
        {
          "indexed": true,
          "internalType": "address",
          "name": "account",
          "type": "address"
        },
        {
          "indexed": true,
          "internalType": "address",
          "name": "sender",
          "type": "address"
        }
      ],
      "name": "RoleRevoked",
      "type": "event"
    },
    {
      "inputs": [],
      "name": "DEFAULT_ADMIN_ROLE",
      "outputs": [
        {
          "internalType": "bytes32",
          "name": "",
          "type": "bytes32"
        }
      ],
      "stateMutability": "view",
      "type": "function"
    },
    {
      "inputs": [
        {
          "internalType": "uint256",
          "name": "entityId",
          "type": "uint256"
        },
        {
          "internalType": "uint256",
          "name": "identityCommitment",
          "type": "uint256"
        }
      ],
      "name": "addWhistleblower",
      "outputs": [],
      "stateMutability": "nonpayable",
      "type": "function"
    },
    {
      "inputs": [
        {
          "internalType": "uint256",
          "name": "",
          "type": "uint256"
        }
      ],
      "name": "allEntities",
      "outputs": [
        {
          "internalType": "uint256",
          "name": "idEntitiy",
          "type": "uint256"
        },
        {
          "internalType": "string",
          "name": "entityName",
          "type": "string"
        },
        {
          "internalType": "address",
          "name": "entityEditor",
          "type": "address"
        }
      ],
      "stateMutability": "view",
      "type": "function"
    },
    {
      "inputs": [
        {
          "internalType": "string",
          "name": "groupName",
          "type": "string"
        },
        {
          "internalType": "address",
          "name": "editor",
          "type": "address"
        },
        {
          "internalType": "uint256",
          "name": "merkleTreeDepth",
          "type": "uint256"
        }
      ],
      "name": "createGroup",
      "outputs": [],
      "stateMutability": "nonpayable",
      "type": "function"
    },
    {
      "inputs": [
        {
          "internalType": "uint256",
          "name": "",
          "type": "uint256"
        }
      ],
      "name": "entityNames",
      "outputs": [
        {
          "internalType": "string",
          "name": "",
          "type": "string"
        }
      ],
      "stateMutability": "view",
      "type": "function"
    },
    {
      "inputs": [
        {
          "internalType": "uint256",
          "name": "groupId",
          "type": "uint256"
        }
      ],
      "name": "getMerkleTreeDepth",
      "outputs": [
        {
          "internalType": "uint256",
          "name": "",
          "type": "uint256"
        }
      ],
      "stateMutability": "view",
      "type": "function"
    },
    {
      "inputs": [
        {
          "internalType": "uint256",
          "name": "groupId",
          "type": "uint256"
        }
      ],
      "name": "getMerkleTreeRoot",
      "outputs": [
        {
          "internalType": "uint256",
          "name": "",
          "type": "uint256"
        }
      ],
      "stateMutability": "view",
      "type": "function"
    },
    {
      "inputs": [],
      "name": "getNumberOfEntities",
      "outputs": [
        {
          "internalType": "uint256",
          "name": "",
          "type": "uint256"
        }
      ],
      "stateMutability": "view",
      "type": "function"
    },
    {
      "inputs": [
        {
          "internalType": "uint256",
          "name": "groupId",
          "type": "uint256"
        }
      ],
      "name": "getNumberOfMerkleTreeLeaves",
      "outputs": [
        {
          "internalType": "uint256",
          "name": "",
          "type": "uint256"
        }
      ],
      "stateMutability": "view",
      "type": "function"
    },
    {
      "inputs": [
        {
          "internalType": "bytes32",
          "name": "role",
          "type": "bytes32"
        }
      ],
      "name": "getRoleAdmin",
      "outputs": [
        {
          "internalType": "bytes32",
          "name": "",
          "type": "bytes32"
        }
      ],
      "stateMutability": "view",
      "type": "function"
    },
    {
      "inputs": [
        {
          "internalType": "bytes32",
          "name": "role",
          "type": "bytes32"
        },
        {
          "internalType": "address",
          "name": "account",
          "type": "address"
        }
      ],
      "name": "grantRole",
      "outputs": [],
      "stateMutability": "nonpayable",
      "type": "function"
    },
    {
      "inputs": [
        {
          "internalType": "bytes32",
          "name": "role",
          "type": "bytes32"
        },
        {
          "internalType": "address",
          "name": "account",
          "type": "address"
        }
      ],
      "name": "hasRole",
      "outputs": [
        {
          "internalType": "bool",
          "name": "",
          "type": "bool"
        }
      ],
      "stateMutability": "view",
      "type": "function"
    },
    {
      "inputs": [
        {
          "internalType": "uint256",
          "name": "leak",
          "type": "uint256"
        },
        {
          "internalType": "uint256",
          "name": "nullifierHash",
          "type": "uint256"
        },
        {
          "internalType": "uint256",
          "name": "entityId",
          "type": "uint256"
        },
        {
          "internalType": "uint256[8]",
          "name": "proof",
          "type": "uint256[8]"
        }
      ],
      "name": "publishLeak",
      "outputs": [],
      "stateMutability": "nonpayable",
      "type": "function"
    },
    {
      "inputs": [
        {
          "internalType": "uint256",
          "name": "entityId",
          "type": "uint256"
        },
        {
          "internalType": "uint256",
          "name": "identityCommitment",
          "type": "uint256"
        },
        {
          "internalType": "uint256[]",
          "name": "proofSiblings",
          "type": "uint256[]"
        },
        {
          "internalType": "uint8[]",
          "name": "proofPathIndices",
          "type": "uint8[]"
        }
      ],
      "name": "removeWhistleblower",
      "outputs": [],
      "stateMutability": "nonpayable",
      "type": "function"
    },
    {
      "inputs": [
        {
          "internalType": "bytes32",
          "name": "role",
          "type": "bytes32"
        },
        {
          "internalType": "address",
          "name": "account",
          "type": "address"
        }
      ],
      "name": "renounceRole",
      "outputs": [],
      "stateMutability": "nonpayable",
      "type": "function"
    },
    {
      "inputs": [
        {
          "internalType": "bytes32",
          "name": "role",
          "type": "bytes32"
        },
        {
          "internalType": "address",
          "name": "account",
          "type": "address"
        }
      ],
      "name": "revokeRole",
      "outputs": [],
      "stateMutability": "nonpayable",
      "type": "function"
    },
    {
      "inputs": [
        {
          "internalType": "bytes4",
          "name": "interfaceId",
          "type": "bytes4"
        }
      ],
      "name": "supportsInterface",
      "outputs": [
        {
          "internalType": "bool",
          "name": "",
          "type": "bool"
        }
      ],
      "stateMutability": "view",
      "type": "function"
    },
    {
      "inputs": [
        {
          "internalType": "uint256",
          "name": "_index",
          "type": "uint256"
        },
        {
          "internalType": "address",
          "name": "_newEditor",
          "type": "address"
        },
        {
          "internalType": "uint256",
          "name": "entityId",
          "type": "uint256"
        }
      ],
      "name": "updateGroupEditor",
      "outputs": [],
      "stateMutability": "nonpayable",
      "type": "function"
    },
    {
      "inputs": [
        {
          "internalType": "uint256",
          "name": "_index",
          "type": "uint256"
        },
        {
          "internalType": "string",
          "name": "_groupName",
          "type": "string"
        },
        {
          "internalType": "uint256",
          "name": "entityId",
          "type": "uint256"
        }
      ],
      "name": "updateGroupName",
      "outputs": [],
      "stateMutability": "nonpayable",
      "type": "function"
    },
    {
      "inputs": [
        {
          "internalType": "contract ISemaphoreVerifier",
          "name": "_newSemaphoreVerifier",
          "type": "address"
        }
      ],
      "name": "updateVerifierContract",
      "outputs": [],
      "stateMutability": "nonpayable",
      "type": "function"
    },
    {
      "inputs": [],
      "name": "verifier",
      "outputs": [
        {
          "internalType": "contract ISemaphoreVerifier",
          "name": "",
          "type": "address"
        }
      ],
      "stateMutability": "view",
      "type": "function"
    }
  ],
  "bytecode": "0x608060405262087a236003553480156200001857600080fd5b5060405162002e8a38038062002e8a83398181016040528101906200003e919062000216565b620000536000801b336200009b60201b60201c565b80600260006101000a81548173ffffffffffffffffffffffffffffffffffffffff021916908373ffffffffffffffffffffffffffffffffffffffff16021790555050620002a4565b620000ad82826200018c60201b60201c565b6200018857600180600084815260200190815260200160002060000160008373ffffffffffffffffffffffffffffffffffffffff1673ffffffffffffffffffffffffffffffffffffffff16815260200190815260200160002060006101000a81548160ff0219169083151502179055506200012d620001f760201b60201c565b73ffffffffffffffffffffffffffffffffffffffff168173ffffffffffffffffffffffffffffffffffffffff16837f2f8788117e7eff1d82e926ec794901d17c78024a50270940304540a733656f0d60405160405180910390a45b5050565b60006001600084815260200190815260200160002060000160008373ffffffffffffffffffffffffffffffffffffffff1673ffffffffffffffffffffffffffffffffffffffff16815260200190815260200160002060009054906101000a900460ff16905092915050565b600033905090565b60008151905062000210816200028a565b92915050565b6000602082840312156200022957600080fd5b60006200023984828501620001ff565b91505092915050565b60006200024f826200026a565b9050919050565b6000620002638262000242565b9050919050565b600073ffffffffffffffffffffffffffffffffffffffff82169050919050565b620002958162000256565b8114620002a157600080fd5b50565b612bd680620002b46000396000f3fe608060405234801561001057600080fd5b50600436106101375760003560e01c806388aac64c116100b8578063a217fddf1161007c578063a217fddf1461035c578063a7b5519a1461037a578063c001ff4b14610398578063d547741f146103c8578063dabc4d51146103e4578063e0dc970e1461041457610137565b806388aac64c146102a65780638b7d5805146102d85780638fe03587146102f457806391d1485414610310578063a151f6c21461034057610137565b806344b3e1b5116100ff57806344b3e1b5146101f25780635027000d1461020e57806357f139fb1461022a578063638480be146102465780636389e1071461027657610137565b806301ffc9a71461013c578063248a9ca31461016c5780632b7ac3f31461019c5780632f2ff15d146101ba57806336568abe146101d6575b600080fd5b61015660048036038101906101519190611d7f565b610430565b6040516101639190612330565b60405180910390f35b61018660048036038101906101819190611d1a565b6104aa565b604051610193919061234b565b60405180910390f35b6101a46104ca565b6040516101b19190612366565b60405180910390f35b6101d460048036038101906101cf9190611d43565b6104f0565b005b6101f060048036038101906101eb9190611d43565b610511565b005b61020c60048036038101906102079190611ff3565b610594565b005b61022860048036038101906102239190611f58565b610683565b005b610244600480360381019061023f9190611eb0565b61073a565b005b610260600480360381019061025b9190611e38565b610865565b60405161026d919061249a565b60405180910390f35b610290600480360381019061028b9190611e38565b610884565b60405161029d919061249a565b60405180910390f35b6102c060048036038101906102bb9190611e38565b6108a3565b6040516102cf939291906124e5565b60405180910390f35b6102f260048036038101906102ed9190611dd1565b610985565b005b61030e60048036038101906103099190611f1c565b610b7d565b005b61032a60048036038101906103259190611d43565b610c2c565b6040516103379190612330565b60405180910390f35b61035a60048036038101906103559190611e61565b610c97565b005b610364610e1f565b604051610371919061234b565b60405180910390f35b610382610e26565b60405161038f919061249a565b60405180910390f35b6103b260048036038101906103ad9190611e38565b610e33565b6040516103bf9190612381565b60405180910390f35b6103e260048036038101906103dd9190611d43565b610ed3565b005b6103fe60048036038101906103f99190611e38565b610ef4565b60405161040b919061249a565b60405180910390f35b61042e60048036038101906104299190611da8565b610f13565b005b60007f7965db0b000000000000000000000000000000000000000000000000000000007bffffffffffffffffffffffffffffffffffffffffffffffffffffffff1916827bffffffffffffffffffffffffffffffffffffffffffffffffffffffff191614806104a357506104a282610f65565b5b9050919050565b600060016000838152602001908152602001600020600101549050919050565b600260009054906101000a900473ffffffffffffffffffffffffffffffffffffffff1681565b6104f9826104aa565b61050281610fcf565b61050c8383610fe3565b505050565b6105196110c3565b73ffffffffffffffffffffffffffffffffffffffff168173ffffffffffffffffffffffffffffffffffffffff1614610586576040517f08c379a000000000000000000000000000000000000000000000000000000000815260040161057d906123c3565b60405180910390fd5b61059082826110cb565b5050565b600061059f83610884565b905060006105ac84610ef4565b9050600260009054906101000a900473ffffffffffffffffffffffffffffffffffffffff1673ffffffffffffffffffffffffffffffffffffffff16639aca8f2a8287898888886040518763ffffffff1660e01b815260040161061396959493929190612583565b60006040518083038186803b15801561062b57600080fd5b505afa15801561063f573d6000803e3d6000fd5b50505050837f6575baaf8921e3c2cb37c292eeece0c64152500ecbdd784b09c3d902693702f987604051610673919061249a565b60405180910390a2505050505050565b8561068c6110c3565b73ffffffffffffffffffffffffffffffffffffffff166005600083815260200190815260200160002060009054906101000a900473ffffffffffffffffffffffffffffffffffffffff1673ffffffffffffffffffffffffffffffffffffffff1614610723576040517f0cfd3b8500000000000000000000000000000000000000000000000000000000815260040160405180910390fd5b6107318787878787876111ad565b50505050505050565b806107436110c3565b73ffffffffffffffffffffffffffffffffffffffff166005600083815260200190815260200160002060009054906101000a900473ffffffffffffffffffffffffffffffffffffffff1673ffffffffffffffffffffffffffffffffffffffff16146107da576040517f0cfd3b8500000000000000000000000000000000000000000000000000000000815260040160405180910390fd5b600060048681548110610816577f4e487b7100000000000000000000000000000000000000000000000000000000600052603260045260246000fd5b906000526020600020906003020190508484826001019190610839929190611a0f565b50848460066000868152602001908152602001600020919061085c929190611a0f565b50505050505050565b6000806000838152602001908152602001600020600201549050919050565b6000806000838152602001908152602001600020600001549050919050565b600481815481106108b357600080fd5b90600052602060002090600302016000915090508060000154908060010180546108dc906128f8565b80601f0160208091040260200160405190810160405280929190818152602001828054610908906128f8565b80156109555780601f1061092a57610100808354040283529160200191610955565b820191906000526020600020905b81548152906001019060200180831161093857829003601f168201915b5050505050908060020160009054906101000a900473ffffffffffffffffffffffffffffffffffffffff16905083565b600061098f6112d5565b905060108210806109a05750602082115b156109d7576040517fecf64f1200000000000000000000000000000000000000000000000000000000815260040160405180910390fd5b6109e181836112f1565b826005600083815260200190815260200160002060006101000a81548173ffffffffffffffffffffffffffffffffffffffff021916908373ffffffffffffffffffffffffffffffffffffffff16021790555083600660008381526020019081526020016000209080519060200190610a5a929190611a95565b50600460405180606001604052808381526020018681526020018573ffffffffffffffffffffffffffffffffffffffff168152509080600181540180825580915050600190039060005260206000209060030201600090919091909150600082015181600001556020820151816001019080519060200190610add929190611a95565b5060408201518160020160006101000a81548173ffffffffffffffffffffffffffffffffffffffff021916908373ffffffffffffffffffffffffffffffffffffffff16021790555050508273ffffffffffffffffffffffffffffffffffffffff167f5e9a622ce7c2ad04bdfcde39875b785628f345810649df8ea7d33f55bd2b35fc8286604051610b6f9291906124b5565b60405180910390a250505050565b81610b866110c3565b73ffffffffffffffffffffffffffffffffffffffff166005600083815260200190815260200160002060009054906101000a900473ffffffffffffffffffffffffffffffffffffffff1673ffffffffffffffffffffffffffffffffffffffff1614610c1d576040517f0cfd3b8500000000000000000000000000000000000000000000000000000000815260040160405180910390fd5b610c278383611422565b505050565b60006001600084815260200190815260200160002060000160008373ffffffffffffffffffffffffffffffffffffffff1673ffffffffffffffffffffffffffffffffffffffff16815260200190815260200160002060009054906101000a900460ff16905092915050565b80610ca06110c3565b73ffffffffffffffffffffffffffffffffffffffff166005600083815260200190815260200160002060009054906101000a900473ffffffffffffffffffffffffffffffffffffffff1673ffffffffffffffffffffffffffffffffffffffff1614610d37576040517f0cfd3b8500000000000000000000000000000000000000000000000000000000815260040160405180910390fd5b600060048581548110610d73577f4e487b7100000000000000000000000000000000000000000000000000000000600052603260045260246000fd5b90600052602060002090600302019050838160020160006101000a81548173ffffffffffffffffffffffffffffffffffffffff021916908373ffffffffffffffffffffffffffffffffffffffff160217905550836005600085815260200190815260200160002060006101000a81548173ffffffffffffffffffffffffffffffffffffffff021916908373ffffffffffffffffffffffffffffffffffffffff1602179055505050505050565b6000801b81565b6000600480549050905090565b60066020528060005260406000206000915090508054610e52906128f8565b80601f0160208091040260200160405190810160405280929190818152602001828054610e7e906128f8565b8015610ecb5780601f10610ea057610100808354040283529160200191610ecb565b820191906000526020600020905b815481529060010190602001808311610eae57829003601f168201915b505050505081565b610edc826104aa565b610ee581610fcf565b610eef83836110cb565b505050565b6000806000838152602001908152602001600020600101549050919050565b6000801b610f2081610fcf565b81600260006101000a81548173ffffffffffffffffffffffffffffffffffffffff021916908373ffffffffffffffffffffffffffffffffffffffff1602179055505050565b60007f01ffc9a7000000000000000000000000000000000000000000000000000000007bffffffffffffffffffffffffffffffffffffffffffffffffffffffff1916827bffffffffffffffffffffffffffffffffffffffffffffffffffffffff1916149050919050565b610fe081610fdb6110c3565b611549565b50565b610fed8282610c2c565b6110bf57600180600084815260200190815260200160002060000160008373ffffffffffffffffffffffffffffffffffffffff1673ffffffffffffffffffffffffffffffffffffffff16815260200190815260200160002060006101000a81548160ff0219169083151502179055506110646110c3565b73ffffffffffffffffffffffffffffffffffffffff168173ffffffffffffffffffffffffffffffffffffffff16837f2f8788117e7eff1d82e926ec794901d17c78024a50270940304540a733656f0d60405160405180910390a45b5050565b600033905090565b6110d58282610c2c565b156111a95760006001600084815260200190815260200160002060000160008373ffffffffffffffffffffffffffffffffffffffff1673ffffffffffffffffffffffffffffffffffffffff16815260200190815260200160002060006101000a81548160ff02191690831515021790555061114e6110c3565b73ffffffffffffffffffffffffffffffffffffffff168173ffffffffffffffffffffffffffffffffffffffff16837ff6391f5c32d9c69d2a47ea670b442974b53935d1edc7fd64eb21e047a839171b60405160405180910390a45b5050565b60006111b887610884565b14156111f0576040517f029f057900000000000000000000000000000000000000000000000000000000815260040160405180910390fd5b60008087815260200190815260200160002073__$0c6eb7207c37accf1552a1c47686411ac0$__630629596f909187878787876040518763ffffffff1660e01b81526004016112449695949392919061240c565b60006040518083038186803b15801561125c57600080fd5b505af4158015611270573d6000803e3d6000fd5b50505050600061127f87610ef4565b9050600061128d84846115e6565b9050877f3108849c053c77b8073a11256dffb5ffd5b55e93e105a355e1c9061db890d8718289856040516112c39392919061254c565b60405180910390a25050505050505050565b60006003600081546112e69061295b565b919050819055905090565b60006112fc83610884565b14611333576040517f8121725b00000000000000000000000000000000000000000000000000000000815260040160405180910390fd5b60006008836040516020016113489190612315565b6040516020818303038152906040528051906020012060001c901c905060008084815260200190815260200160002073__$0c6eb7207c37accf1552a1c47686411ac0$__631095fbb4909184846040518463ffffffff1660e01b81526004016113b393929190612463565b60006040518083038186803b1580156113cb57600080fd5b505af41580156113df573d6000803e3d6000fd5b50505050827f0d000126c26c1bbe400fd2332187f75d58b69306f9ec47b408686189d3a008338383604051611415929190612523565b60405180910390a2505050565b600061142d83610884565b1415611465576040517f029f057900000000000000000000000000000000000000000000000000000000815260040160405180910390fd5b60008083815260200190815260200160002073__$0c6eb7207c37accf1552a1c47686411ac0$__63168703fa9091836040518363ffffffff1660e01b81526004016114b19291906123e3565b60006040518083038186803b1580156114c957600080fd5b505af41580156114dd573d6000803e3d6000fd5b5050505060006114ec83610ef4565b9050600060016114fb85610865565b6115059190612763565b9050837f19239b3f93cd10558aaf11423af70c77763bf54f52bcc75bfa74d4d13548cde982858560405161153b9392919061254c565b60405180910390a250505050565b6115538282610c2c565b6115e2576115788173ffffffffffffffffffffffffffffffffffffffff166014611715565b6115868360001c6020611715565b6040516020016115979291906122db565b6040516020818303038152906040526040517f08c379a00000000000000000000000000000000000000000000000000000000081526004016115d99190612381565b60405180910390fd5b5050565b6000806000905060008484905090505b60008160ff16111561170a57600082118061167157506000858560018461161d9190612797565b60ff16818110611656577f4e487b7100000000000000000000000000000000000000000000000000000000600052603260045260246000fd5b905060200201602081019061166b9190612057565b60ff1614155b156116fe576002826116839190612709565b9150600185856001846116969190612797565b60ff168181106116cf577f4e487b7100000000000000000000000000000000000000000000000000000000600052603260045260246000fd5b90506020020160208101906116e49190612057565b60ff1614156116fd576001826116fa91906126b3565b91505b5b806001900390506115f6565b508091505092915050565b6060600060028360026117289190612709565b61173291906126b3565b67ffffffffffffffff811115611771577f4e487b7100000000000000000000000000000000000000000000000000000000600052604160045260246000fd5b6040519080825280601f01601f1916602001820160405280156117a35781602001600182028036833780820191505090505b5090507f300000000000000000000000000000000000000000000000000000000000000081600081518110611801577f4e487b7100000000000000000000000000000000000000000000000000000000600052603260045260246000fd5b60200101907effffffffffffffffffffffffffffffffffffffffffffffffffffffffffffff1916908160001a9053507f78000000000000000000000000000000000000000000000000000000000000008160018151811061188b577f4e487b7100000000000000000000000000000000000000000000000000000000600052603260045260246000fd5b60200101907effffffffffffffffffffffffffffffffffffffffffffffffffffffffffffff1916908160001a905350600060018460026118cb9190612709565b6118d591906126b3565b90505b60018111156119c1577f3031323334353637383961626364656600000000000000000000000000000000600f86166010811061193d577f4e487b7100000000000000000000000000000000000000000000000000000000600052603260045260246000fd5b1a60f81b82828151811061197a577f4e487b7100000000000000000000000000000000000000000000000000000000600052603260045260246000fd5b60200101907effffffffffffffffffffffffffffffffffffffffffffffffffffffffffffff1916908160001a905350600485901c9450806119ba906128ce565b90506118d8565b5060008414611a05576040517f08c379a00000000000000000000000000000000000000000000000000000000081526004016119fc906123a3565b60405180910390fd5b8091505092915050565b828054611a1b906128f8565b90600052602060002090601f016020900481019282611a3d5760008555611a84565b82601f10611a5657803560ff1916838001178555611a84565b82800160010185558215611a84579182015b82811115611a83578235825591602001919060010190611a68565b5b509050611a919190611b1b565b5090565b828054611aa1906128f8565b90600052602060002090601f016020900481019282611ac35760008555611b0a565b82601f10611adc57805160ff1916838001178555611b0a565b82800160010185558215611b0a579182015b82811115611b09578251825591602001919060010190611aee565b5b509050611b179190611b1b565b5090565b5b80821115611b34576000816000905550600101611b1c565b5090565b6000611b4b611b468461260b565b6125e6565b905082815260208101848484011115611b6357600080fd5b611b6e84828561288c565b509392505050565b600081359050611b8581612b16565b92915050565b600081905082602060080282011115611ba357600080fd5b92915050565b60008083601f840112611bbb57600080fd5b8235905067ffffffffffffffff811115611bd457600080fd5b602083019150836020820283011115611bec57600080fd5b9250929050565b60008083601f840112611c0557600080fd5b8235905067ffffffffffffffff811115611c1e57600080fd5b602083019150836020820283011115611c3657600080fd5b9250929050565b600081359050611c4c81612b2d565b92915050565b600081359050611c6181612b44565b92915050565b600081359050611c7681612b5b565b92915050565b60008083601f840112611c8e57600080fd5b8235905067ffffffffffffffff811115611ca757600080fd5b602083019150836001820283011115611cbf57600080fd5b9250929050565b600082601f830112611cd757600080fd5b8135611ce7848260208601611b38565b91505092915050565b600081359050611cff81612b72565b92915050565b600081359050611d1481612b89565b92915050565b600060208284031215611d2c57600080fd5b6000611d3a84828501611c3d565b91505092915050565b60008060408385031215611d5657600080fd5b6000611d6485828601611c3d565b9250506020611d7585828601611b76565b9150509250929050565b600060208284031215611d9157600080fd5b6000611d9f84828501611c52565b91505092915050565b600060208284031215611dba57600080fd5b6000611dc884828501611c67565b91505092915050565b600080600060608486031215611de657600080fd5b600084013567ffffffffffffffff811115611e0057600080fd5b611e0c86828701611cc6565b9350506020611e1d86828701611b76565b9250506040611e2e86828701611cf0565b9150509250925092565b600060208284031215611e4a57600080fd5b6000611e5884828501611cf0565b91505092915050565b600080600060608486031215611e7657600080fd5b6000611e8486828701611cf0565b9350506020611e9586828701611b76565b9250506040611ea686828701611cf0565b9150509250925092565b60008060008060608587031215611ec657600080fd5b6000611ed487828801611cf0565b945050602085013567ffffffffffffffff811115611ef157600080fd5b611efd87828801611c7c565b93509350506040611f1087828801611cf0565b91505092959194509250565b60008060408385031215611f2f57600080fd5b6000611f3d85828601611cf0565b9250506020611f4e85828601611cf0565b9150509250929050565b60008060008060008060808789031215611f7157600080fd5b6000611f7f89828a01611cf0565b9650506020611f9089828a01611cf0565b955050604087013567ffffffffffffffff811115611fad57600080fd5b611fb989828a01611ba9565b9450945050606087013567ffffffffffffffff811115611fd857600080fd5b611fe489828a01611bf3565b92509250509295509295509295565b600080600080610160858703121561200a57600080fd5b600061201887828801611cf0565b945050602061202987828801611cf0565b935050604061203a87828801611cf0565b925050606061204b87828801611b8b565b91505092959194509250565b60006020828403121561206957600080fd5b600061207784828501611d05565b91505092915050565b600061208c83836122cc565b60208301905092915050565b6120a1816127cb565b82525050565b6120b4610100838361288c565b5050565b60006120c4838561265e565b93507f07ffffffffffffffffffffffffffffffffffffffffffffffffffffffffffffff8311156120f357600080fd5b60208302925061210483858461288c565b82840190509392505050565b600061211c838561266f565b93506121278261263c565b8060005b858110156121605761213d828461269c565b6121478882612080565b975061215283612651565b92505060018101905061212b565b5085925050509392505050565b612176816127dd565b82525050565b612185816127e9565b82525050565b61219481612868565b82525050565b60006121a582612646565b6121af8185612680565b93506121bf81856020860161289b565b6121c881612a3b565b840191505092915050565b60006121de82612646565b6121e88185612691565b93506121f881856020860161289b565b80840191505092915050565b6000612211602083612680565b915061221c82612a4c565b602082019050919050565b6000612234601783612691565b915061223f82612a75565b601782019050919050565b6000612257601183612691565b915061226282612a9e565b601182019050919050565b600061227a602f83612680565b915061228582612ac7565b604082019050919050565b8082525050565b6122a081612851565b82525050565b6122af81612851565b82525050565b6122c66122c182612851565b6129a4565b82525050565b6122d58161285b565b82525050565b60006122e682612227565b91506122f282856121d3565b91506122fd8261224a565b915061230982846121d3565b91508190509392505050565b600061232182846122b5565b60208201915081905092915050565b6000602082019050612345600083018461216d565b92915050565b6000602082019050612360600083018461217c565b92915050565b600060208201905061237b600083018461218b565b92915050565b6000602082019050818103600083015261239b818461219a565b905092915050565b600060208201905081810360008301526123bc81612204565b9050919050565b600060208201905081810360008301526123dc8161226d565b9050919050565b60006040820190506123f86000830185612290565b61240560208301846122a6565b9392505050565b60006080820190506124216000830189612290565b61242e60208301886122a6565b81810360408301526124418186886120b8565b90508181036060830152612456818486612110565b9050979650505050505050565b60006060820190506124786000830186612290565b61248560208301856122a6565b61249260408301846122a6565b949350505050565b60006020820190506124af6000830184612297565b92915050565b60006040820190506124ca6000830185612297565b81810360208301526124dc818461219a565b90509392505050565b60006060820190506124fa6000830186612297565b818103602083015261250c818561219a565b905061251b6040830184612098565b949350505050565b60006040820190506125386000830185612297565b6125456020830184612297565b9392505050565b60006060820190506125616000830186612297565b61256e6020830185612297565b61257b6040830184612297565b949350505050565b60006101a0820190506125996000830189612297565b6125a66020830188612297565b6125b36040830187612297565b6125c06060830186612297565b6125cd60808301856120a7565b6125db610180830184612297565b979650505050505050565b60006125f0612601565b90506125fc828261292a565b919050565b6000604051905090565b600067ffffffffffffffff82111561262657612625612a0c565b5b61262f82612a3b565b9050602081019050919050565b6000819050919050565b600081519050919050565b6000602082019050919050565b600082825260208201905092915050565b600082825260208201905092915050565b600082825260208201905092915050565b600081905092915050565b60006126ab6020840184611d05565b905092915050565b60006126be82612851565b91506126c983612851565b9250827fffffffffffffffffffffffffffffffffffffffffffffffffffffffffffffffff038211156126fe576126fd6129ae565b5b828201905092915050565b600061271482612851565b915061271f83612851565b9250817fffffffffffffffffffffffffffffffffffffffffffffffffffffffffffffffff0483118215151615612758576127576129ae565b5b828202905092915050565b600061276e82612851565b915061277983612851565b92508282101561278c5761278b6129ae565b5b828203905092915050565b60006127a28261285b565b91506127ad8361285b565b9250828210156127c0576127bf6129ae565b5b828203905092915050565b60006127d682612831565b9050919050565b60008115159050919050565b6000819050919050565b60007fffffffff0000000000000000000000000000000000000000000000000000000082169050919050565b600061282a826127cb565b9050919050565b600073ffffffffffffffffffffffffffffffffffffffff82169050919050565b6000819050919050565b600060ff82169050919050565b60006128738261287a565b9050919050565b600061288582612831565b9050919050565b82818337600083830152505050565b60005b838110156128b957808201518184015260208101905061289e565b838111156128c8576000848401525b50505050565b60006128d982612851565b915060008214156128ed576128ec6129ae565b5b600182039050919050565b6000600282049050600182168061291057607f821691505b60208210811415612924576129236129dd565b5b50919050565b61293382612a3b565b810181811067ffffffffffffffff8211171561295257612951612a0c565b5b80604052505050565b600061296682612851565b91507fffffffffffffffffffffffffffffffffffffffffffffffffffffffffffffffff821415612999576129986129ae565b5b600182019050919050565b6000819050919050565b7f4e487b7100000000000000000000000000000000000000000000000000000000600052601160045260246000fd5b7f4e487b7100000000000000000000000000000000000000000000000000000000600052602260045260246000fd5b7f4e487b7100000000000000000000000000000000000000000000000000000000600052604160045260246000fd5b6000601f19601f8301169050919050565b7f537472696e67733a20686578206c656e67746820696e73756666696369656e74600082015250565b7f416363657373436f6e74726f6c3a206163636f756e7420000000000000000000600082015250565b7f206973206d697373696e6720726f6c6520000000000000000000000000000000600082015250565b7f416363657373436f6e74726f6c3a2063616e206f6e6c792072656e6f756e636560008201527f20726f6c657320666f722073656c660000000000000000000000000000000000602082015250565b612b1f816127cb565b8114612b2a57600080fd5b50565b612b36816127e9565b8114612b4157600080fd5b50565b612b4d816127f3565b8114612b5857600080fd5b50565b612b648161281f565b8114612b6f57600080fd5b50565b612b7b81612851565b8114612b8657600080fd5b50565b612b928161285b565b8114612b9d57600080fd5b5056fea264697066735822122011f115eb9c0d82b69e2a83c3c757adb56fc6a92305a1a059a65f45c16d38b99264736f6c63430008040033",
  "linkReferences": {
    "@zk-kit/incremental-merkle-tree.sol/IncrementalBinaryTree.sol": {
      "IncrementalBinaryTree": [
        {
          "length": 20,
          "start": 5304
        },
        {
          "length": 20,
          "start": 5677
        },
        {
          "length": 20,
          "start": 5933
        }
      ]
    }
  },
  "deployedLinkReferences": {
    "@zk-kit/incremental-merkle-tree.sol/IncrementalBinaryTree.sol": {
      "IncrementalBinaryTree": [
        {
          "length": 20,
          "start": 4612
        },
        {
          "length": 20,
          "start": 4985
        },
        {
          "length": 20,
          "start": 5241
        }
      ]
    }
  }
}