{
  "_format": "hh-sol-artifact-1",
  "contractName": "SemaphoreCommunities",
  "sourceName": "contracts/SemaphoreCommunities.sol",
  "abi": [
    {
      "inputs": [
        {
          "internalType": "address",
          "name": "semaphoreAddress",
          "type": "address"
        }
      ],
      "stateMutability": "nonpayable",
      "type": "constructor"
    },
    {
      "inputs": [],
      "name": "Semaphore__CallerIsNotTheEditor",
      "type": "error"
    },
    {
      "inputs": [],
      "name": "Semaphore__GroupAlreadyExists",
      "type": "error"
    },
    {
      "inputs": [],
      "name": "Semaphore__GroupDoesNotExist",
      "type": "error"
    },
    {
      "inputs": [],
      "name": "Semaphore__MerkleTreeDepthIsNotSupported",
      "type": "error"
    },
    {
      "anonymous": false,
      "inputs": [
        {
          "indexed": false,
          "internalType": "uint256",
          "name": "entityId",
          "type": "uint256"
        },
        {
          "indexed": false,
          "internalType": "string",
          "name": "groupName",
          "type": "string"
        },
        {
          "indexed": true,
          "internalType": "address",
          "name": "editor",
          "type": "address"
        }
      ],
      "name": "EntityCreated",
      "type": "event"
    },
    {
      "anonymous": false,
      "inputs": [
        {
          "indexed": true,
          "internalType": "uint256",
          "name": "groupId",
          "type": "uint256"
        },
        {
          "indexed": false,
          "internalType": "uint256",
          "name": "merkleTreeDepth",
          "type": "uint256"
        },
        {
          "indexed": false,
          "internalType": "uint256",
          "name": "zeroValue",
          "type": "uint256"
        }
      ],
      "name": "GroupCreated",
      "type": "event"
    },
    {
      "anonymous": false,
      "inputs": [
        {
          "indexed": true,
          "internalType": "uint256",
          "name": "entityId",
          "type": "uint256"
        },
        {
          "indexed": false,
          "internalType": "uint256",
          "name": "leak",
          "type": "uint256"
        }
      ],
      "name": "LeakPublished",
      "type": "event"
    },
    {
      "anonymous": false,
      "inputs": [
        {
          "indexed": true,
          "internalType": "uint256",
          "name": "groupId",
          "type": "uint256"
        },
        {
          "indexed": false,
          "internalType": "uint256",
          "name": "index",
          "type": "uint256"
        },
        {
          "indexed": false,
          "internalType": "uint256",
          "name": "identityCommitment",
          "type": "uint256"
        },
        {
          "indexed": false,
          "internalType": "uint256",
          "name": "merkleTreeRoot",
          "type": "uint256"
        }
      ],
      "name": "MemberAdded",
      "type": "event"
    },
    {
      "anonymous": false,
      "inputs": [
        {
          "indexed": true,
          "internalType": "uint256",
          "name": "groupId",
          "type": "uint256"
        },
        {
          "indexed": false,
          "internalType": "uint256",
          "name": "index",
          "type": "uint256"
        },
        {
          "indexed": false,
          "internalType": "uint256",
          "name": "identityCommitment",
          "type": "uint256"
        },
        {
          "indexed": false,
          "internalType": "uint256",
          "name": "merkleTreeRoot",
          "type": "uint256"
        }
      ],
      "name": "MemberRemoved",
      "type": "event"
    },
    {
      "anonymous": false,
      "inputs": [
        {
          "indexed": true,
          "internalType": "uint256",
          "name": "groupId",
          "type": "uint256"
        },
        {
          "indexed": false,
          "internalType": "uint256",
          "name": "index",
          "type": "uint256"
        },
        {
          "indexed": false,
          "internalType": "uint256",
          "name": "identityCommitment",
          "type": "uint256"
        },
        {
          "indexed": false,
          "internalType": "uint256",
          "name": "newIdentityCommitment",
          "type": "uint256"
        },
        {
          "indexed": false,
          "internalType": "uint256",
          "name": "merkleTreeRoot",
          "type": "uint256"
        }
      ],
      "name": "MemberUpdated",
      "type": "event"
    },
    {
      "anonymous": false,
      "inputs": [
        {
          "indexed": true,
          "internalType": "bytes32",
          "name": "role",
          "type": "bytes32"
        },
        {
          "indexed": true,
          "internalType": "bytes32",
          "name": "previousAdminRole",
          "type": "bytes32"
        },
        {
          "indexed": true,
          "internalType": "bytes32",
          "name": "newAdminRole",
          "type": "bytes32"
        }
      ],
      "name": "RoleAdminChanged",
      "type": "event"
    },
    {
      "anonymous": false,
      "inputs": [
        {
          "indexed": true,
          "internalType": "bytes32",
          "name": "role",
          "type": "bytes32"
        },
        {
          "indexed": true,
          "internalType": "address",
          "name": "account",
          "type": "address"
        },
        {
          "indexed": true,
          "internalType": "address",
          "name": "sender",
          "type": "address"
        }
      ],
      "name": "RoleGranted",
      "type": "event"
    },
    {
      "anonymous": false,
      "inputs": [
        {
          "indexed": true,
          "internalType": "bytes32",
          "name": "role",
          "type": "bytes32"
        },
        {
          "indexed": true,
          "internalType": "address",
          "name": "account",
          "type": "address"
        },
        {
          "indexed": true,
          "internalType": "address",
          "name": "sender",
          "type": "address"
        }
      ],
      "name": "RoleRevoked",
      "type": "event"
    },
    {
      "inputs": [],
      "name": "DEFAULT_ADMIN_ROLE",
      "outputs": [
        {
          "internalType": "bytes32",
          "name": "",
          "type": "bytes32"
        }
      ],
      "stateMutability": "view",
      "type": "function"
    },
    {
      "inputs": [
        {
          "internalType": "uint256",
          "name": "entityId",
          "type": "uint256"
        },
        {
          "internalType": "uint256",
          "name": "identityCommitment",
          "type": "uint256"
        }
      ],
      "name": "addWhistleblower",
      "outputs": [],
      "stateMutability": "nonpayable",
      "type": "function"
    },
    {
      "inputs": [
        {
          "internalType": "uint256",
          "name": "",
          "type": "uint256"
        }
      ],
      "name": "allEntities",
      "outputs": [
        {
          "internalType": "uint256",
          "name": "idEntity",
          "type": "uint256"
        },
        {
          "internalType": "string",
          "name": "entityName",
          "type": "string"
        },
        {
          "internalType": "address",
          "name": "entityEditor",
          "type": "address"
        }
      ],
      "stateMutability": "view",
      "type": "function"
    },
    {
      "inputs": [
        {
          "internalType": "string",
          "name": "groupName",
          "type": "string"
        },
        {
          "internalType": "address",
          "name": "editor",
          "type": "address"
        },
        {
          "internalType": "uint256",
          "name": "merkleTreeDepth",
          "type": "uint256"
        }
      ],
      "name": "createGroup",
      "outputs": [],
      "stateMutability": "nonpayable",
      "type": "function"
    },
    {
      "inputs": [
        {
          "internalType": "uint256",
          "name": "",
          "type": "uint256"
        }
      ],
      "name": "entityNames",
      "outputs": [
        {
          "internalType": "string",
          "name": "",
          "type": "string"
        }
      ],
      "stateMutability": "view",
      "type": "function"
    },
    {
      "inputs": [
        {
          "internalType": "uint256",
          "name": "groupId",
          "type": "uint256"
        }
      ],
      "name": "getMerkleTreeDepth",
      "outputs": [
        {
          "internalType": "uint256",
          "name": "",
          "type": "uint256"
        }
      ],
      "stateMutability": "view",
      "type": "function"
    },
    {
      "inputs": [
        {
          "internalType": "uint256",
          "name": "groupId",
          "type": "uint256"
        }
      ],
      "name": "getMerkleTreeRoot",
      "outputs": [
        {
          "internalType": "uint256",
          "name": "",
          "type": "uint256"
        }
      ],
      "stateMutability": "view",
      "type": "function"
    },
    {
      "inputs": [],
      "name": "getNumberOfEntities",
      "outputs": [
        {
          "internalType": "uint256",
          "name": "",
          "type": "uint256"
        }
      ],
      "stateMutability": "view",
      "type": "function"
    },
    {
      "inputs": [
        {
          "internalType": "uint256",
          "name": "groupId",
          "type": "uint256"
        }
      ],
      "name": "getNumberOfMerkleTreeLeaves",
      "outputs": [
        {
          "internalType": "uint256",
          "name": "",
          "type": "uint256"
        }
      ],
      "stateMutability": "view",
      "type": "function"
    },
    {
      "inputs": [
        {
          "internalType": "bytes32",
          "name": "role",
          "type": "bytes32"
        }
      ],
      "name": "getRoleAdmin",
      "outputs": [
        {
          "internalType": "bytes32",
          "name": "",
          "type": "bytes32"
        }
      ],
      "stateMutability": "view",
      "type": "function"
    },
    {
      "inputs": [
        {
          "internalType": "bytes32",
          "name": "role",
          "type": "bytes32"
        },
        {
          "internalType": "address",
          "name": "account",
          "type": "address"
        }
      ],
      "name": "grantRole",
      "outputs": [],
      "stateMutability": "nonpayable",
      "type": "function"
    },
    {
      "inputs": [
        {
          "internalType": "bytes32",
          "name": "role",
          "type": "bytes32"
        },
        {
          "internalType": "address",
          "name": "account",
          "type": "address"
        }
      ],
      "name": "hasRole",
      "outputs": [
        {
          "internalType": "bool",
          "name": "",
          "type": "bool"
        }
      ],
      "stateMutability": "view",
      "type": "function"
    },
    {
      "inputs": [
        {
          "internalType": "uint256",
          "name": "entityId",
          "type": "uint256"
        },
        {
          "internalType": "uint256",
          "name": "leak",
          "type": "uint256"
        },
        {
          "internalType": "uint256",
          "name": "nullifierHash",
          "type": "uint256"
        },
        {
          "internalType": "uint256[8]",
          "name": "proof",
          "type": "uint256[8]"
        }
      ],
      "name": "publishLeak",
      "outputs": [],
      "stateMutability": "nonpayable",
      "type": "function"
    },
    {
      "inputs": [
        {
          "internalType": "uint256",
          "name": "entityId",
          "type": "uint256"
        },
        {
          "internalType": "uint256",
          "name": "identityCommitment",
          "type": "uint256"
        },
        {
          "internalType": "uint256[]",
          "name": "proofSiblings",
          "type": "uint256[]"
        },
        {
          "internalType": "uint8[]",
          "name": "proofPathIndices",
          "type": "uint8[]"
        }
      ],
      "name": "removeWhistleblower",
      "outputs": [],
      "stateMutability": "nonpayable",
      "type": "function"
    },
    {
      "inputs": [
        {
          "internalType": "bytes32",
          "name": "role",
          "type": "bytes32"
        },
        {
          "internalType": "address",
          "name": "account",
          "type": "address"
        }
      ],
      "name": "renounceRole",
      "outputs": [],
      "stateMutability": "nonpayable",
      "type": "function"
    },
    {
      "inputs": [
        {
          "internalType": "bytes32",
          "name": "role",
          "type": "bytes32"
        },
        {
          "internalType": "address",
          "name": "account",
          "type": "address"
        }
      ],
      "name": "revokeRole",
      "outputs": [],
      "stateMutability": "nonpayable",
      "type": "function"
    },
    {
      "inputs": [],
      "name": "semaphore",
      "outputs": [
        {
          "internalType": "contract ISemaphore",
          "name": "",
          "type": "address"
        }
      ],
      "stateMutability": "view",
      "type": "function"
    },
    {
      "inputs": [
        {
          "internalType": "bytes4",
          "name": "interfaceId",
          "type": "bytes4"
        }
      ],
      "name": "supportsInterface",
      "outputs": [
        {
          "internalType": "bool",
          "name": "",
          "type": "bool"
        }
      ],
      "stateMutability": "view",
      "type": "function"
    },
    {
      "inputs": [
        {
          "internalType": "uint256",
          "name": "_index",
          "type": "uint256"
        },
        {
          "internalType": "address",
          "name": "_newEditor",
          "type": "address"
        },
        {
          "internalType": "uint256",
          "name": "entityId",
          "type": "uint256"
        }
      ],
      "name": "updateGroupEditor",
      "outputs": [],
      "stateMutability": "nonpayable",
      "type": "function"
    },
    {
      "inputs": [
        {
          "internalType": "uint256",
          "name": "_index",
          "type": "uint256"
        },
        {
          "internalType": "string",
          "name": "_groupName",
          "type": "string"
        },
        {
          "internalType": "uint256",
          "name": "entityId",
          "type": "uint256"
        }
      ],
      "name": "updateGroupName",
      "outputs": [],
      "stateMutability": "nonpayable",
      "type": "function"
    },
    {
      "inputs": [
        {
          "internalType": "address",
          "name": "_newSemaphoreContract",
          "type": "address"
        }
      ],
      "name": "updateSemaphoreContract",
      "outputs": [],
      "stateMutability": "nonpayable",
      "type": "function"
    }
  ],
  "bytecode": "0x608060405260006003553480156200001657600080fd5b50604051620029cc380380620029cc83398181016040528101906200003c919062000214565b80600260006101000a81548173ffffffffffffffffffffffffffffffffffffffff021916908373ffffffffffffffffffffffffffffffffffffffff160217905550620000926000801b336200009960201b60201c565b506200028e565b620000ab82826200018a60201b60201c565b6200018657600180600084815260200190815260200160002060000160008373ffffffffffffffffffffffffffffffffffffffff1673ffffffffffffffffffffffffffffffffffffffff16815260200190815260200160002060006101000a81548160ff0219169083151502179055506200012b620001f560201b60201c565b73ffffffffffffffffffffffffffffffffffffffff168173ffffffffffffffffffffffffffffffffffffffff16837f2f8788117e7eff1d82e926ec794901d17c78024a50270940304540a733656f0d60405160405180910390a45b5050565b60006001600084815260200190815260200160002060000160008373ffffffffffffffffffffffffffffffffffffffff1673ffffffffffffffffffffffffffffffffffffffff16815260200190815260200160002060009054906101000a900460ff16905092915050565b600033905090565b6000815190506200020e8162000274565b92915050565b6000602082840312156200022757600080fd5b60006200023784828501620001fd565b91505092915050565b60006200024d8262000254565b9050919050565b600073ffffffffffffffffffffffffffffffffffffffff82169050919050565b6200027f8162000240565b81146200028b57600080fd5b50565b61272e806200029e6000396000f3fe608060405234801561001057600080fd5b50600436106101375760003560e01c806388aac64c116100b8578063a217fddf1161007c578063a217fddf1461035c578063a7b5519a1461037a578063c001ff4b14610398578063d547741f146103c8578063dabc4d51146103e4578063e49948151461041457610137565b806388aac64c146102a65780638b7d5805146102d85780638fe03587146102f457806391d1485414610310578063a151f6c21461034057610137565b80635027000d116100ff5780635027000d146101f057806357f139fb1461020c578063638480be146102285780636389e107146102585780637b5d25341461028857610137565b806301ffc9a71461013c578063248a9ca31461016c5780632f2ff15d1461019c57806336568abe146101b857806344b3e1b5146101d4575b600080fd5b61015660048036038101906101519190611a6d565b610430565b6040516101639190611f84565b60405180910390f35b61018660048036038101906101819190611a08565b6104aa565b6040516101939190611f9f565b60405180910390f35b6101b660048036038101906101b19190611a31565b6104ca565b005b6101d260048036038101906101cd9190611a31565b6104eb565b005b6101ee60048036038101906101e99190611cb8565b61056e565b005b61020a60048036038101906102059190611c1d565b610651565b005b61022660048036038101906102219190611b75565b610791565b005b610242600480360381019061023d9190611afd565b6108bc565b60405161024f9190612037565b60405180910390f35b610272600480360381019061026d9190611afd565b6108db565b60405161027f9190612037565b60405180910390f35b6102906108fa565b60405161029d9190611fba565b60405180910390f35b6102c060048036038101906102bb9190611afd565b610920565b6040516102cf93929190612082565b60405180910390f35b6102f260048036038101906102ed9190611a96565b610a02565b005b61030e60048036038101906103099190611be1565b610c81565b005b61032a60048036038101906103259190611a31565b610db5565b6040516103379190611f84565b60405180910390f35b61035a60048036038101906103559190611b26565b610e20565b005b610364610fa8565b6040516103719190611f9f565b60405180910390f35b610382610faf565b60405161038f9190612037565b60405180910390f35b6103b260048036038101906103ad9190611afd565b610fbc565b6040516103bf9190611fd5565b60405180910390f35b6103e260048036038101906103dd9190611a31565b61105c565b005b6103fe60048036038101906103f99190611afd565b61107d565b60405161040b9190612037565b60405180910390f35b61042e600480360381019061042991906119df565b61109c565b005b60007f7965db0b000000000000000000000000000000000000000000000000000000007bffffffffffffffffffffffffffffffffffffffffffffffffffffffff1916827bffffffffffffffffffffffffffffffffffffffffffffffffffffffff191614806104a357506104a2826110ee565b5b9050919050565b600060016000838152602001908152602001600020600101549050919050565b6104d3826104aa565b6104dc81611158565b6104e6838361116c565b505050565b6104f361124c565b73ffffffffffffffffffffffffffffffffffffffff168173ffffffffffffffffffffffffffffffffffffffff1614610560576040517f08c379a000000000000000000000000000000000000000000000000000000000815260040161055790612017565b60405180910390fd5b61056a8282611254565b5050565b60006105798561107d565b9050600260009054906101000a900473ffffffffffffffffffffffffffffffffffffffff1673ffffffffffffffffffffffffffffffffffffffff16633bc778e3868387878a886040518763ffffffff1660e01b81526004016105e096959493929190612177565b600060405180830381600087803b1580156105fa57600080fd5b505af115801561060e573d6000803e3d6000fd5b50505050847f6575baaf8921e3c2cb37c292eeece0c64152500ecbdd784b09c3d902693702f9856040516106429190612037565b60405180910390a25050505050565b8561065a61124c565b73ffffffffffffffffffffffffffffffffffffffff166005600083815260200190815260200160002060009054906101000a900473ffffffffffffffffffffffffffffffffffffffff1673ffffffffffffffffffffffffffffffffffffffff16146106f1576040517f0cfd3b8500000000000000000000000000000000000000000000000000000000815260040160405180910390fd5b600260009054906101000a900473ffffffffffffffffffffffffffffffffffffffff1673ffffffffffffffffffffffffffffffffffffffff166343989f858888888888886040518763ffffffff1660e01b815260040161075696959493929190612120565b600060405180830381600087803b15801561077057600080fd5b505af1158015610784573d6000803e3d6000fd5b5050505050505050505050565b8061079a61124c565b73ffffffffffffffffffffffffffffffffffffffff166005600083815260200190815260200160002060009054906101000a900473ffffffffffffffffffffffffffffffffffffffff1673ffffffffffffffffffffffffffffffffffffffff1614610831576040517f0cfd3b8500000000000000000000000000000000000000000000000000000000815260040160405180910390fd5b60006004868154811061086d577f4e487b7100000000000000000000000000000000000000000000000000000000600052603260045260246000fd5b9060005260206000209060030201905084848260010191906108909291906116e9565b5084846006600086815260200190815260200160002091906108b39291906116e9565b50505050505050565b6000806000838152602001908152602001600020600201549050919050565b6000806000838152602001908152602001600020600001549050919050565b600260009054906101000a900473ffffffffffffffffffffffffffffffffffffffff1681565b6004818154811061093057600080fd5b906000526020600020906003020160009150905080600001549080600101805461095990612471565b80601f016020809104026020016040519081016040528092919081815260200182805461098590612471565b80156109d25780601f106109a7576101008083540402835291602001916109d2565b820191906000526020600020905b8154815290600101906020018083116109b557829003601f168201915b5050505050908060020160009054906101000a900473ffffffffffffffffffffffffffffffffffffffff16905083565b6000610a0c611336565b90506010821080610a1d5750602082115b15610a54576040517fecf64f1200000000000000000000000000000000000000000000000000000000815260040160405180910390fd5b600260009054906101000a900473ffffffffffffffffffffffffffffffffffffffff1673ffffffffffffffffffffffffffffffffffffffff16639c1121418284336040518463ffffffff1660e01b8152600401610ab3939291906120e9565b600060405180830381600087803b158015610acd57600080fd5b505af1158015610ae1573d6000803e3d6000fd5b50505050826005600083815260200190815260200160002060006101000a81548173ffffffffffffffffffffffffffffffffffffffff021916908373ffffffffffffffffffffffffffffffffffffffff16021790555083600660008381526020019081526020016000209080519060200190610b5e92919061176f565b50600460405180606001604052808381526020018681526020018573ffffffffffffffffffffffffffffffffffffffff168152509080600181540180825580915050600190039060005260206000209060030201600090919091909150600082015181600001556020820151816001019080519060200190610be192919061176f565b5060408201518160020160006101000a81548173ffffffffffffffffffffffffffffffffffffffff021916908373ffffffffffffffffffffffffffffffffffffffff16021790555050508273ffffffffffffffffffffffffffffffffffffffff167f5e9a622ce7c2ad04bdfcde39875b785628f345810649df8ea7d33f55bd2b35fc8286604051610c73929190612052565b60405180910390a250505050565b81610c8a61124c565b73ffffffffffffffffffffffffffffffffffffffff166005600083815260200190815260200160002060009054906101000a900473ffffffffffffffffffffffffffffffffffffffff1673ffffffffffffffffffffffffffffffffffffffff1614610d21576040517f0cfd3b8500000000000000000000000000000000000000000000000000000000815260040160405180910390fd5b600260009054906101000a900473ffffffffffffffffffffffffffffffffffffffff1673ffffffffffffffffffffffffffffffffffffffff16631783efc384846040518363ffffffff1660e01b8152600401610d7e9291906120c0565b600060405180830381600087803b158015610d9857600080fd5b505af1158015610dac573d6000803e3d6000fd5b50505050505050565b60006001600084815260200190815260200160002060000160008373ffffffffffffffffffffffffffffffffffffffff1673ffffffffffffffffffffffffffffffffffffffff16815260200190815260200160002060009054906101000a900460ff16905092915050565b80610e2961124c565b73ffffffffffffffffffffffffffffffffffffffff166005600083815260200190815260200160002060009054906101000a900473ffffffffffffffffffffffffffffffffffffffff1673ffffffffffffffffffffffffffffffffffffffff1614610ec0576040517f0cfd3b8500000000000000000000000000000000000000000000000000000000815260040160405180910390fd5b600060048581548110610efc577f4e487b7100000000000000000000000000000000000000000000000000000000600052603260045260246000fd5b90600052602060002090600302019050838160020160006101000a81548173ffffffffffffffffffffffffffffffffffffffff021916908373ffffffffffffffffffffffffffffffffffffffff160217905550836005600085815260200190815260200160002060006101000a81548173ffffffffffffffffffffffffffffffffffffffff021916908373ffffffffffffffffffffffffffffffffffffffff1602179055505050505050565b6000801b81565b6000600480549050905090565b60066020528060005260406000206000915090508054610fdb90612471565b80601f016020809104026020016040519081016040528092919081815260200182805461100790612471565b80156110545780601f1061102957610100808354040283529160200191611054565b820191906000526020600020905b81548152906001019060200180831161103757829003601f168201915b505050505081565b611065826104aa565b61106e81611158565b6110788383611254565b505050565b6000806000838152602001908152602001600020600101549050919050565b6000801b6110a981611158565b81600260006101000a81548173ffffffffffffffffffffffffffffffffffffffff021916908373ffffffffffffffffffffffffffffffffffffffff1602179055505050565b60007f01ffc9a7000000000000000000000000000000000000000000000000000000007bffffffffffffffffffffffffffffffffffffffffffffffffffffffff1916827bffffffffffffffffffffffffffffffffffffffffffffffffffffffff1916149050919050565b6111698161116461124c565b611352565b50565b6111768282610db5565b61124857600180600084815260200190815260200160002060000160008373ffffffffffffffffffffffffffffffffffffffff1673ffffffffffffffffffffffffffffffffffffffff16815260200190815260200160002060006101000a81548160ff0219169083151502179055506111ed61124c565b73ffffffffffffffffffffffffffffffffffffffff168173ffffffffffffffffffffffffffffffffffffffff16837f2f8788117e7eff1d82e926ec794901d17c78024a50270940304540a733656f0d60405160405180910390a45b5050565b600033905090565b61125e8282610db5565b156113325760006001600084815260200190815260200160002060000160008373ffffffffffffffffffffffffffffffffffffffff1673ffffffffffffffffffffffffffffffffffffffff16815260200190815260200160002060006101000a81548160ff0219169083151502179055506112d761124c565b73ffffffffffffffffffffffffffffffffffffffff168173ffffffffffffffffffffffffffffffffffffffff16837ff6391f5c32d9c69d2a47ea670b442974b53935d1edc7fd64eb21e047a839171b60405160405180910390a45b5050565b6000600360008154611347906124d4565b919050819055905090565b61135c8282610db5565b6113eb576113818173ffffffffffffffffffffffffffffffffffffffff1660146113ef565b61138f8360001c60206113ef565b6040516020016113a0929190611f4a565b6040516020818303038152906040526040517f08c379a00000000000000000000000000000000000000000000000000000000081526004016113e29190611fd5565b60405180910390fd5b5050565b60606000600283600261140291906122fc565b61140c91906122a6565b67ffffffffffffffff81111561144b577f4e487b7100000000000000000000000000000000000000000000000000000000600052604160045260246000fd5b6040519080825280601f01601f19166020018201604052801561147d5781602001600182028036833780820191505090505b5090507f3000000000000000000000000000000000000000000000000000000000000000816000815181106114db577f4e487b7100000000000000000000000000000000000000000000000000000000600052603260045260246000fd5b60200101907effffffffffffffffffffffffffffffffffffffffffffffffffffffffffffff1916908160001a9053507f780000000000000000000000000000000000000000000000000000000000000081600181518110611565577f4e487b7100000000000000000000000000000000000000000000000000000000600052603260045260246000fd5b60200101907effffffffffffffffffffffffffffffffffffffffffffffffffffffffffffff1916908160001a905350600060018460026115a591906122fc565b6115af91906122a6565b90505b600181111561169b577f3031323334353637383961626364656600000000000000000000000000000000600f861660108110611617577f4e487b7100000000000000000000000000000000000000000000000000000000600052603260045260246000fd5b1a60f81b828281518110611654577f4e487b7100000000000000000000000000000000000000000000000000000000600052603260045260246000fd5b60200101907effffffffffffffffffffffffffffffffffffffffffffffffffffffffffffff1916908160001a905350600485901c94508061169490612447565b90506115b2565b50600084146116df576040517f08c379a00000000000000000000000000000000000000000000000000000000081526004016116d690611ff7565b60405180910390fd5b8091505092915050565b8280546116f590612471565b90600052602060002090601f016020900481019282611717576000855561175e565b82601f1061173057803560ff191683800117855561175e565b8280016001018555821561175e579182015b8281111561175d578235825591602001919060010190611742565b5b50905061176b91906117f5565b5090565b82805461177b90612471565b90600052602060002090601f01602090048101928261179d57600085556117e4565b82601f106117b657805160ff19168380011785556117e4565b828001600101855582156117e4579182015b828111156117e35782518255916020019190600101906117c8565b5b5090506117f191906117f5565b5090565b5b8082111561180e5760008160009055506001016117f6565b5090565b6000611825611820846121fe565b6121d9565b90508281526020810184848401111561183d57600080fd5b611848848285612405565b509392505050565b60008135905061185f81612685565b92915050565b60008190508260206008028201111561187d57600080fd5b92915050565b60008083601f84011261189557600080fd5b8235905067ffffffffffffffff8111156118ae57600080fd5b6020830191508360208202830111156118c657600080fd5b9250929050565b60008083601f8401126118df57600080fd5b8235905067ffffffffffffffff8111156118f857600080fd5b60208301915083602082028301111561191057600080fd5b9250929050565b6000813590506119268161269c565b92915050565b60008135905061193b816126b3565b92915050565b60008083601f84011261195357600080fd5b8235905067ffffffffffffffff81111561196c57600080fd5b60208301915083600182028301111561198457600080fd5b9250929050565b600082601f83011261199c57600080fd5b81356119ac848260208601611812565b91505092915050565b6000813590506119c4816126ca565b92915050565b6000813590506119d9816126e1565b92915050565b6000602082840312156119f157600080fd5b60006119ff84828501611850565b91505092915050565b600060208284031215611a1a57600080fd5b6000611a2884828501611917565b91505092915050565b60008060408385031215611a4457600080fd5b6000611a5285828601611917565b9250506020611a6385828601611850565b9150509250929050565b600060208284031215611a7f57600080fd5b6000611a8d8482850161192c565b91505092915050565b600080600060608486031215611aab57600080fd5b600084013567ffffffffffffffff811115611ac557600080fd5b611ad18682870161198b565b9350506020611ae286828701611850565b9250506040611af3868287016119b5565b9150509250925092565b600060208284031215611b0f57600080fd5b6000611b1d848285016119b5565b91505092915050565b600080600060608486031215611b3b57600080fd5b6000611b49868287016119b5565b9350506020611b5a86828701611850565b9250506040611b6b868287016119b5565b9150509250925092565b60008060008060608587031215611b8b57600080fd5b6000611b99878288016119b5565b945050602085013567ffffffffffffffff811115611bb657600080fd5b611bc287828801611941565b93509350506040611bd5878288016119b5565b91505092959194509250565b60008060408385031215611bf457600080fd5b6000611c02858286016119b5565b9250506020611c13858286016119b5565b9150509250929050565b60008060008060008060808789031215611c3657600080fd5b6000611c4489828a016119b5565b9650506020611c5589828a016119b5565b955050604087013567ffffffffffffffff811115611c7257600080fd5b611c7e89828a01611883565b9450945050606087013567ffffffffffffffff811115611c9d57600080fd5b611ca989828a016118cd565b92509250509295509295509295565b6000806000806101608587031215611ccf57600080fd5b6000611cdd878288016119b5565b9450506020611cee878288016119b5565b9350506040611cff878288016119b5565b9250506060611d1087828801611865565b91505092959194509250565b6000611d288383611f3b565b60208301905092915050565b611d3d81612356565b82525050565b611d506101008383612405565b5050565b6000611d608385612251565b93507f07ffffffffffffffffffffffffffffffffffffffffffffffffffffffffffffff831115611d8f57600080fd5b602083029250611da0838584612405565b82840190509392505050565b6000611db88385612262565b9350611dc38261222f565b8060005b85811015611dfc57611dd9828461228f565b611de38882611d1c565b9750611dee83612244565b925050600181019050611dc7565b5085925050509392505050565b611e1281612368565b82525050565b611e2181612374565b82525050565b611e30816123e1565b82525050565b6000611e4182612239565b611e4b8185612273565b9350611e5b818560208601612414565b611e64816125aa565b840191505092915050565b6000611e7a82612239565b611e848185612284565b9350611e94818560208601612414565b80840191505092915050565b6000611ead602083612273565b9150611eb8826125bb565b602082019050919050565b6000611ed0601783612284565b9150611edb826125e4565b601782019050919050565b6000611ef3601183612284565b9150611efe8261260d565b601182019050919050565b6000611f16602f83612273565b9150611f2182612636565b604082019050919050565b611f35816123ca565b82525050565b611f44816123d4565b82525050565b6000611f5582611ec3565b9150611f618285611e6f565b9150611f6c82611ee6565b9150611f788284611e6f565b91508190509392505050565b6000602082019050611f996000830184611e09565b92915050565b6000602082019050611fb46000830184611e18565b92915050565b6000602082019050611fcf6000830184611e27565b92915050565b60006020820190508181036000830152611fef8184611e36565b905092915050565b6000602082019050818103600083015261201081611ea0565b9050919050565b6000602082019050818103600083015261203081611f09565b9050919050565b600060208201905061204c6000830184611f2c565b92915050565b60006040820190506120676000830185611f2c565b81810360208301526120798184611e36565b90509392505050565b60006060820190506120976000830186611f2c565b81810360208301526120a98185611e36565b90506120b86040830184611d34565b949350505050565b60006040820190506120d56000830185611f2c565b6120e26020830184611f2c565b9392505050565b60006060820190506120fe6000830186611f2c565b61210b6020830185611f2c565b6121186040830184611d34565b949350505050565b60006080820190506121356000830189611f2c565b6121426020830188611f2c565b8181036040830152612155818688611d54565b9050818103606083015261216a818486611dac565b9050979650505050505050565b60006101a08201905061218d6000830189611f2c565b61219a6020830188611f2c565b6121a76040830187611f2c565b6121b46060830186611f2c565b6121c16080830185611f2c565b6121ce60a0830184611d43565b979650505050505050565b60006121e36121f4565b90506121ef82826124a3565b919050565b6000604051905090565b600067ffffffffffffffff8211156122195761221861257b565b5b612222826125aa565b9050602081019050919050565b6000819050919050565b600081519050919050565b6000602082019050919050565b600082825260208201905092915050565b600082825260208201905092915050565b600082825260208201905092915050565b600081905092915050565b600061229e60208401846119ca565b905092915050565b60006122b1826123ca565b91506122bc836123ca565b9250827fffffffffffffffffffffffffffffffffffffffffffffffffffffffffffffffff038211156122f1576122f061251d565b5b828201905092915050565b6000612307826123ca565b9150612312836123ca565b9250817fffffffffffffffffffffffffffffffffffffffffffffffffffffffffffffffff048311821515161561234b5761234a61251d565b5b828202905092915050565b6000612361826123aa565b9050919050565b60008115159050919050565b6000819050919050565b60007fffffffff0000000000000000000000000000000000000000000000000000000082169050919050565b600073ffffffffffffffffffffffffffffffffffffffff82169050919050565b6000819050919050565b600060ff82169050919050565b60006123ec826123f3565b9050919050565b60006123fe826123aa565b9050919050565b82818337600083830152505050565b60005b83811015612432578082015181840152602081019050612417565b83811115612441576000848401525b50505050565b6000612452826123ca565b915060008214156124665761246561251d565b5b600182039050919050565b6000600282049050600182168061248957607f821691505b6020821081141561249d5761249c61254c565b5b50919050565b6124ac826125aa565b810181811067ffffffffffffffff821117156124cb576124ca61257b565b5b80604052505050565b60006124df826123ca565b91507fffffffffffffffffffffffffffffffffffffffffffffffffffffffffffffffff8214156125125761251161251d565b5b600182019050919050565b7f4e487b7100000000000000000000000000000000000000000000000000000000600052601160045260246000fd5b7f4e487b7100000000000000000000000000000000000000000000000000000000600052602260045260246000fd5b7f4e487b7100000000000000000000000000000000000000000000000000000000600052604160045260246000fd5b6000601f19601f8301169050919050565b7f537472696e67733a20686578206c656e67746820696e73756666696369656e74600082015250565b7f416363657373436f6e74726f6c3a206163636f756e7420000000000000000000600082015250565b7f206973206d697373696e6720726f6c6520000000000000000000000000000000600082015250565b7f416363657373436f6e74726f6c3a2063616e206f6e6c792072656e6f756e636560008201527f20726f6c657320666f722073656c660000000000000000000000000000000000602082015250565b61268e81612356565b811461269957600080fd5b50565b6126a581612374565b81146126b057600080fd5b50565b6126bc8161237e565b81146126c757600080fd5b50565b6126d3816123ca565b81146126de57600080fd5b50565b6126ea816123d4565b81146126f557600080fd5b5056fea26469706673582212208f34aad25d3c46eeac8711dc3e956eda5e73002cd3724c1d44de11f1137386e764736f6c63430008040033",
  "linkReferences": {},
  "deployedLinkReferences": {}
}