{
  "_format": "hh-sol-artifact-1",
  "contractName": "SemaphoreCommunities",
  "sourceName": "contracts/SemaphoreCommunities.sol",
  "abi": [
    {
      "inputs": [
        {
          "internalType": "contract ISemaphoreVerifier",
          "name": "_verifier",
          "type": "address"
        }
      ],
      "stateMutability": "nonpayable",
      "type": "constructor"
    },
    {
      "inputs": [],
      "name": "Semaphore__CallerIsNotTheEditor",
      "type": "error"
    },
    {
      "inputs": [],
      "name": "Semaphore__GroupAlreadyExists",
      "type": "error"
    },
    {
      "inputs": [],
      "name": "Semaphore__GroupDoesNotExist",
      "type": "error"
    },
    {
      "inputs": [],
      "name": "Semaphore__MerkleTreeDepthIsNotSupported",
      "type": "error"
    },
    {
      "anonymous": false,
      "inputs": [
        {
          "indexed": false,
          "internalType": "uint256",
          "name": "entityId",
          "type": "uint256"
        },
        {
          "indexed": false,
          "internalType": "string",
          "name": "groupName",
          "type": "string"
        },
        {
          "indexed": true,
          "internalType": "address",
          "name": "editor",
          "type": "address"
        }
      ],
      "name": "EntityCreated",
      "type": "event"
    },
    {
      "anonymous": false,
      "inputs": [
        {
          "indexed": true,
          "internalType": "uint256",
          "name": "groupId",
          "type": "uint256"
        },
        {
          "indexed": false,
          "internalType": "uint256",
          "name": "merkleTreeDepth",
          "type": "uint256"
        },
        {
          "indexed": false,
          "internalType": "uint256",
          "name": "zeroValue",
          "type": "uint256"
        }
      ],
      "name": "GroupCreated",
      "type": "event"
    },
    {
      "anonymous": false,
      "inputs": [
        {
          "indexed": true,
          "internalType": "uint256",
          "name": "entityId",
          "type": "uint256"
        },
        {
          "indexed": false,
          "internalType": "uint256",
          "name": "leak",
          "type": "uint256"
        }
      ],
      "name": "LeakPublished",
      "type": "event"
    },
    {
      "anonymous": false,
      "inputs": [
        {
          "indexed": true,
          "internalType": "uint256",
          "name": "groupId",
          "type": "uint256"
        },
        {
          "indexed": false,
          "internalType": "uint256",
          "name": "index",
          "type": "uint256"
        },
        {
          "indexed": false,
          "internalType": "uint256",
          "name": "identityCommitment",
          "type": "uint256"
        },
        {
          "indexed": false,
          "internalType": "uint256",
          "name": "merkleTreeRoot",
          "type": "uint256"
        }
      ],
      "name": "MemberAdded",
      "type": "event"
    },
    {
      "anonymous": false,
      "inputs": [
        {
          "indexed": true,
          "internalType": "uint256",
          "name": "groupId",
          "type": "uint256"
        },
        {
          "indexed": false,
          "internalType": "uint256",
          "name": "index",
          "type": "uint256"
        },
        {
          "indexed": false,
          "internalType": "uint256",
          "name": "identityCommitment",
          "type": "uint256"
        },
        {
          "indexed": false,
          "internalType": "uint256",
          "name": "merkleTreeRoot",
          "type": "uint256"
        }
      ],
      "name": "MemberRemoved",
      "type": "event"
    },
    {
      "anonymous": false,
      "inputs": [
        {
          "indexed": true,
          "internalType": "uint256",
          "name": "groupId",
          "type": "uint256"
        },
        {
          "indexed": false,
          "internalType": "uint256",
          "name": "index",
          "type": "uint256"
        },
        {
          "indexed": false,
          "internalType": "uint256",
          "name": "identityCommitment",
          "type": "uint256"
        },
        {
          "indexed": false,
          "internalType": "uint256",
          "name": "newIdentityCommitment",
          "type": "uint256"
        },
        {
          "indexed": false,
          "internalType": "uint256",
          "name": "merkleTreeRoot",
          "type": "uint256"
        }
      ],
      "name": "MemberUpdated",
      "type": "event"
    },
    {
      "inputs": [
        {
          "internalType": "uint256",
          "name": "entityId",
          "type": "uint256"
        },
        {
          "internalType": "uint256",
          "name": "identityCommitment",
          "type": "uint256"
        }
      ],
      "name": "addWhistleblower",
      "outputs": [],
      "stateMutability": "nonpayable",
      "type": "function"
    },
    {
      "inputs": [
        {
          "internalType": "uint256",
          "name": "",
          "type": "uint256"
        }
      ],
      "name": "allEntities",
      "outputs": [
        {
          "internalType": "uint256",
          "name": "idEntitiy",
          "type": "uint256"
        },
        {
          "internalType": "string",
          "name": "entityName",
          "type": "string"
        },
        {
          "internalType": "address",
          "name": "entityEditor",
          "type": "address"
        }
      ],
      "stateMutability": "view",
      "type": "function"
    },
    {
      "inputs": [
        {
          "internalType": "string",
          "name": "groupName",
          "type": "string"
        },
        {
          "internalType": "address",
          "name": "editor",
          "type": "address"
        },
        {
          "internalType": "uint256",
          "name": "merkleTreeDepth",
          "type": "uint256"
        }
      ],
      "name": "createGroup",
      "outputs": [],
      "stateMutability": "nonpayable",
      "type": "function"
    },
    {
      "inputs": [
        {
          "internalType": "uint256",
          "name": "",
          "type": "uint256"
        }
      ],
      "name": "entityNames",
      "outputs": [
        {
          "internalType": "string",
          "name": "",
          "type": "string"
        }
      ],
      "stateMutability": "view",
      "type": "function"
    },
    {
      "inputs": [
        {
          "internalType": "uint256",
          "name": "groupId",
          "type": "uint256"
        }
      ],
      "name": "getMerkleTreeDepth",
      "outputs": [
        {
          "internalType": "uint256",
          "name": "",
          "type": "uint256"
        }
      ],
      "stateMutability": "view",
      "type": "function"
    },
    {
      "inputs": [
        {
          "internalType": "uint256",
          "name": "groupId",
          "type": "uint256"
        }
      ],
      "name": "getMerkleTreeRoot",
      "outputs": [
        {
          "internalType": "uint256",
          "name": "",
          "type": "uint256"
        }
      ],
      "stateMutability": "view",
      "type": "function"
    },
    {
      "inputs": [],
      "name": "getNumberOfEntities",
      "outputs": [
        {
          "internalType": "uint256",
          "name": "",
          "type": "uint256"
        }
      ],
      "stateMutability": "view",
      "type": "function"
    },
    {
      "inputs": [
        {
          "internalType": "uint256",
          "name": "groupId",
          "type": "uint256"
        }
      ],
      "name": "getNumberOfMerkleTreeLeaves",
      "outputs": [
        {
          "internalType": "uint256",
          "name": "",
          "type": "uint256"
        }
      ],
      "stateMutability": "view",
      "type": "function"
    },
    {
      "inputs": [
        {
          "internalType": "uint256",
          "name": "leak",
          "type": "uint256"
        },
        {
          "internalType": "uint256",
          "name": "nullifierHash",
          "type": "uint256"
        },
        {
          "internalType": "uint256",
          "name": "entityId",
          "type": "uint256"
        },
        {
          "internalType": "uint256[8]",
          "name": "proof",
          "type": "uint256[8]"
        }
      ],
      "name": "publishLeak",
      "outputs": [],
      "stateMutability": "nonpayable",
      "type": "function"
    },
    {
      "inputs": [
        {
          "internalType": "uint256",
          "name": "entityId",
          "type": "uint256"
        },
        {
          "internalType": "uint256",
          "name": "identityCommitment",
          "type": "uint256"
        },
        {
          "internalType": "uint256[]",
          "name": "proofSiblings",
          "type": "uint256[]"
        },
        {
          "internalType": "uint8[]",
          "name": "proofPathIndices",
          "type": "uint8[]"
        }
      ],
      "name": "removeWhistleblower",
      "outputs": [],
      "stateMutability": "nonpayable",
      "type": "function"
    },
    {
      "inputs": [
        {
          "internalType": "uint256",
          "name": "_index",
          "type": "uint256"
        },
        {
          "internalType": "address",
          "name": "_newEditor",
          "type": "address"
        },
        {
          "internalType": "uint256",
          "name": "entityId",
          "type": "uint256"
        }
      ],
      "name": "updateGroupEditor",
      "outputs": [],
      "stateMutability": "nonpayable",
      "type": "function"
    },
    {
      "inputs": [
        {
          "internalType": "uint256",
          "name": "_index",
          "type": "uint256"
        },
        {
          "internalType": "string",
          "name": "_groupName",
          "type": "string"
        },
        {
          "internalType": "uint256",
          "name": "entityId",
          "type": "uint256"
        }
      ],
      "name": "updateGroupName",
      "outputs": [],
      "stateMutability": "nonpayable",
      "type": "function"
    },
    {
      "inputs": [],
      "name": "verifier",
      "outputs": [
        {
          "internalType": "contract ISemaphoreVerifier",
          "name": "",
          "type": "address"
        }
      ],
      "stateMutability": "view",
      "type": "function"
    }
  ],
  "bytecode": "0x60806040523480156200001157600080fd5b5060405162001f7138038062001f71833981810160405281019062000037919062000096565b80600160006101000a81548173ffffffffffffffffffffffffffffffffffffffff021916908373ffffffffffffffffffffffffffffffffffffffff1602179055505062000124565b60008151905062000090816200010a565b92915050565b600060208284031215620000a957600080fd5b6000620000b9848285016200007f565b91505092915050565b6000620000cf82620000ea565b9050919050565b6000620000e382620000c2565b9050919050565b600073ffffffffffffffffffffffffffffffffffffffff82169050919050565b6200011581620000d6565b81146200012157600080fd5b50565b611e3d80620001346000396000f3fe608060405234801561001057600080fd5b50600436106100cf5760003560e01c806388aac64c1161008c578063a151f6c211610066578063a151f6c214610210578063a7b5519a1461022c578063c001ff4b1461024a578063dabc4d511461027a576100cf565b806388aac64c146101a65780638b7d5805146101d85780638fe03587146101f4576100cf565b80632b7ac3f3146100d457806344b3e1b5146100f25780635027000d1461010e57806357f139fb1461012a578063638480be146101465780636389e10714610176575b600080fd5b6100dc6102aa565b6040516100e991906117a5565b60405180910390f35b61010c6004803603810190610107919061157d565b6102d0565b005b610128600480360381019061012391906114e2565b6103bf565b005b610144600480360381019061013f919061143a565b610476565b005b610160600480360381019061015b91906113c2565b6105a1565b60405161016d9190611899565b60405180910390f35b610190600480360381019061018b91906113c2565b6105c0565b60405161019d9190611899565b60405180910390f35b6101c060048036038101906101bb91906113c2565b6105df565b6040516101cf939291906118e4565b60405180910390f35b6101f260048036038101906101ed919061135b565b6106c1565b005b61020e600480360381019061020991906114a6565b6108b9565b005b61022a600480360381019061022591906113eb565b610968565b005b610234610af0565b6040516102419190611899565b60405180910390f35b610264600480360381019061025f91906113c2565b610afd565b60405161027191906117c0565b60405180910390f35b610294600480360381019061028f91906113c2565b610b9d565b6040516102a19190611899565b60405180910390f35b600160009054906101000a900473ffffffffffffffffffffffffffffffffffffffff1681565b60006102db836105c0565b905060006102e884610b9d565b9050600160009054906101000a900473ffffffffffffffffffffffffffffffffffffffff1673ffffffffffffffffffffffffffffffffffffffff16639aca8f2a8287898888886040518763ffffffff1660e01b815260040161034f96959493929190611982565b60006040518083038186803b15801561036757600080fd5b505afa15801561037b573d6000803e3d6000fd5b50505050837f6575baaf8921e3c2cb37c292eeece0c64152500ecbdd784b09c3d902693702f9876040516103af9190611899565b60405180910390a2505050505050565b856103c8610bbc565b73ffffffffffffffffffffffffffffffffffffffff166004600083815260200190815260200160002060009054906101000a900473ffffffffffffffffffffffffffffffffffffffff1673ffffffffffffffffffffffffffffffffffffffff161461045f576040517f0cfd3b8500000000000000000000000000000000000000000000000000000000815260040160405180910390fd5b61046d878787878787610bc4565b50505050505050565b8061047f610bbc565b73ffffffffffffffffffffffffffffffffffffffff166004600083815260200190815260200160002060009054906101000a900473ffffffffffffffffffffffffffffffffffffffff1673ffffffffffffffffffffffffffffffffffffffff1614610516576040517f0cfd3b8500000000000000000000000000000000000000000000000000000000815260040160405180910390fd5b600060038681548110610552577f4e487b7100000000000000000000000000000000000000000000000000000000600052603260045260246000fd5b90600052602060002090600302019050848482600101919061057592919061108f565b50848460056000868152602001908152602001600020919061059892919061108f565b50505050505050565b6000806000838152602001908152602001600020600201549050919050565b6000806000838152602001908152602001600020600001549050919050565b600381815481106105ef57600080fd5b906000526020600020906003020160009150905080600001549080600101805461061890611c6e565b80601f016020809104026020016040519081016040528092919081815260200182805461064490611c6e565b80156106915780601f1061066657610100808354040283529160200191610691565b820191906000526020600020905b81548152906001019060200180831161067457829003601f168201915b5050505050908060020160009054906101000a900473ffffffffffffffffffffffffffffffffffffffff16905083565b60006106cb610cec565b905060108210806106dc5750602082115b15610713576040517fecf64f1200000000000000000000000000000000000000000000000000000000815260040160405180910390fd5b61071d8183610d08565b826004600083815260200190815260200160002060006101000a81548173ffffffffffffffffffffffffffffffffffffffff021916908373ffffffffffffffffffffffffffffffffffffffff16021790555083600560008381526020019081526020016000209080519060200190610796929190611115565b50600360405180606001604052808381526020018681526020018573ffffffffffffffffffffffffffffffffffffffff168152509080600181540180825580915050600190039060005260206000209060030201600090919091909150600082015181600001556020820151816001019080519060200190610819929190611115565b5060408201518160020160006101000a81548173ffffffffffffffffffffffffffffffffffffffff021916908373ffffffffffffffffffffffffffffffffffffffff16021790555050508273ffffffffffffffffffffffffffffffffffffffff167f5e9a622ce7c2ad04bdfcde39875b785628f345810649df8ea7d33f55bd2b35fc82866040516108ab9291906118b4565b60405180910390a250505050565b816108c2610bbc565b73ffffffffffffffffffffffffffffffffffffffff166004600083815260200190815260200160002060009054906101000a900473ffffffffffffffffffffffffffffffffffffffff1673ffffffffffffffffffffffffffffffffffffffff1614610959576040517f0cfd3b8500000000000000000000000000000000000000000000000000000000815260040160405180910390fd5b6109638383610e39565b505050565b80610971610bbc565b73ffffffffffffffffffffffffffffffffffffffff166004600083815260200190815260200160002060009054906101000a900473ffffffffffffffffffffffffffffffffffffffff1673ffffffffffffffffffffffffffffffffffffffff1614610a08576040517f0cfd3b8500000000000000000000000000000000000000000000000000000000815260040160405180910390fd5b600060038581548110610a44577f4e487b7100000000000000000000000000000000000000000000000000000000600052603260045260246000fd5b90600052602060002090600302019050838160020160006101000a81548173ffffffffffffffffffffffffffffffffffffffff021916908373ffffffffffffffffffffffffffffffffffffffff160217905550836004600085815260200190815260200160002060006101000a81548173ffffffffffffffffffffffffffffffffffffffff021916908373ffffffffffffffffffffffffffffffffffffffff1602179055505050505050565b6000600380549050905090565b60056020528060005260406000206000915090508054610b1c90611c6e565b80601f0160208091040260200160405190810160405280929190818152602001828054610b4890611c6e565b8015610b955780601f10610b6a57610100808354040283529160200191610b95565b820191906000526020600020905b815481529060010190602001808311610b7857829003601f168201915b505050505081565b6000806000838152602001908152602001600020600101549050919050565b600033905090565b6000610bcf876105c0565b1415610c07576040517f029f057900000000000000000000000000000000000000000000000000000000815260040160405180910390fd5b60008087815260200190815260200160002073__$0c6eb7207c37accf1552a1c47686411ac0$__630629596f909187878787876040518763ffffffff1660e01b8152600401610c5b9695949392919061180b565b60006040518083038186803b158015610c7357600080fd5b505af4158015610c87573d6000803e3d6000fd5b505050506000610c9687610b9d565b90506000610ca48484610f60565b9050877f3108849c053c77b8073a11256dffb5ffd5b55e93e105a355e1c9061db890d871828985604051610cda9392919061194b565b60405180910390a25050505050505050565b6000600260008154610cfd90611cd1565b919050819055905090565b6000610d13836105c0565b14610d4a576040517f8121725b00000000000000000000000000000000000000000000000000000000815260040160405180910390fd5b6000600883604051602001610d5f919061178a565b6040516020818303038152906040528051906020012060001c901c905060008084815260200190815260200160002073__$0c6eb7207c37accf1552a1c47686411ac0$__631095fbb4909184846040518463ffffffff1660e01b8152600401610dca93929190611862565b60006040518083038186803b158015610de257600080fd5b505af4158015610df6573d6000803e3d6000fd5b50505050827f0d000126c26c1bbe400fd2332187f75d58b69306f9ec47b408686189d3a008338383604051610e2c929190611922565b60405180910390a2505050565b6000610e44836105c0565b1415610e7c576040517f029f057900000000000000000000000000000000000000000000000000000000815260040160405180910390fd5b60008083815260200190815260200160002073__$0c6eb7207c37accf1552a1c47686411ac0$__63168703fa9091836040518363ffffffff1660e01b8152600401610ec89291906117e2565b60006040518083038186803b158015610ee057600080fd5b505af4158015610ef4573d6000803e3d6000fd5b505050506000610f0383610b9d565b905060006001610f12856105a1565b610f1c9190611b57565b9050837f19239b3f93cd10558aaf11423af70c77763bf54f52bcc75bfa74d4d13548cde9828585604051610f529392919061194b565b60405180910390a250505050565b6000806000905060008484905090505b60008160ff161115611084576000821180610feb575060008585600184610f979190611b8b565b60ff16818110610fd0577f4e487b7100000000000000000000000000000000000000000000000000000000600052603260045260246000fd5b9050602002016020810190610fe591906115e1565b60ff1614155b1561107857600282610ffd9190611afd565b9150600185856001846110109190611b8b565b60ff16818110611049577f4e487b7100000000000000000000000000000000000000000000000000000000600052603260045260246000fd5b905060200201602081019061105e91906115e1565b60ff161415611077576001826110749190611aa7565b91505b5b80600190039050610f70565b508091505092915050565b82805461109b90611c6e565b90600052602060002090601f0160209004810192826110bd5760008555611104565b82601f106110d657803560ff1916838001178555611104565b82800160010185558215611104579182015b828111156111035782358255916020019190600101906110e8565b5b509050611111919061119b565b5090565b82805461112190611c6e565b90600052602060002090601f016020900481019282611143576000855561118a565b82601f1061115c57805160ff191683800117855561118a565b8280016001018555821561118a579182015b8281111561118957825182559160200191906001019061116e565b5b509050611197919061119b565b5090565b5b808211156111b457600081600090555060010161119c565b5090565b60006111cb6111c684611a0a565b6119e5565b9050828152602081018484840111156111e357600080fd5b6111ee848285611c2c565b509392505050565b60008135905061120581611dc2565b92915050565b60008190508260206008028201111561122357600080fd5b92915050565b60008083601f84011261123b57600080fd5b8235905067ffffffffffffffff81111561125457600080fd5b60208301915083602082028301111561126c57600080fd5b9250929050565b60008083601f84011261128557600080fd5b8235905067ffffffffffffffff81111561129e57600080fd5b6020830191508360208202830111156112b657600080fd5b9250929050565b60008083601f8401126112cf57600080fd5b8235905067ffffffffffffffff8111156112e857600080fd5b60208301915083600182028301111561130057600080fd5b9250929050565b600082601f83011261131857600080fd5b81356113288482602086016111b8565b91505092915050565b60008135905061134081611dd9565b92915050565b60008135905061135581611df0565b92915050565b60008060006060848603121561137057600080fd5b600084013567ffffffffffffffff81111561138a57600080fd5b61139686828701611307565b93505060206113a7868287016111f6565b92505060406113b886828701611331565b9150509250925092565b6000602082840312156113d457600080fd5b60006113e284828501611331565b91505092915050565b60008060006060848603121561140057600080fd5b600061140e86828701611331565b935050602061141f868287016111f6565b925050604061143086828701611331565b9150509250925092565b6000806000806060858703121561145057600080fd5b600061145e87828801611331565b945050602085013567ffffffffffffffff81111561147b57600080fd5b611487878288016112bd565b9350935050604061149a87828801611331565b91505092959194509250565b600080604083850312156114b957600080fd5b60006114c785828601611331565b92505060206114d885828601611331565b9150509250929050565b600080600080600080608087890312156114fb57600080fd5b600061150989828a01611331565b965050602061151a89828a01611331565b955050604087013567ffffffffffffffff81111561153757600080fd5b61154389828a01611229565b9450945050606087013567ffffffffffffffff81111561156257600080fd5b61156e89828a01611273565b92509250509295509295509295565b600080600080610160858703121561159457600080fd5b60006115a287828801611331565b94505060206115b387828801611331565b93505060406115c487828801611331565b92505060606115d58782880161120b565b91505092959194509250565b6000602082840312156115f357600080fd5b600061160184828501611346565b91505092915050565b6000611616838361177b565b60208301905092915050565b61162b81611bbf565b82525050565b61163e6101008383611c2c565b5050565b600061164e8385611a5d565b93507f07ffffffffffffffffffffffffffffffffffffffffffffffffffffffffffffff83111561167d57600080fd5b60208302925061168e838584611c2c565b82840190509392505050565b60006116a68385611a6e565b93506116b182611a3b565b8060005b858110156116ea576116c78284611a90565b6116d1888261160a565b97506116dc83611a50565b9250506001810190506116b5565b5085925050509392505050565b61170081611c08565b82525050565b600061171182611a45565b61171b8185611a7f565b935061172b818560208601611c3b565b61173481611db1565b840191505092915050565b8082525050565b61174f81611bf1565b82525050565b61175e81611bf1565b82525050565b61177561177082611bf1565b611d1a565b82525050565b61178481611bfb565b82525050565b60006117968284611764565b60208201915081905092915050565b60006020820190506117ba60008301846116f7565b92915050565b600060208201905081810360008301526117da8184611706565b905092915050565b60006040820190506117f7600083018561173f565b6118046020830184611755565b9392505050565b6000608082019050611820600083018961173f565b61182d6020830188611755565b8181036040830152611840818688611642565b9050818103606083015261185581848661169a565b9050979650505050505050565b6000606082019050611877600083018661173f565b6118846020830185611755565b6118916040830184611755565b949350505050565b60006020820190506118ae6000830184611746565b92915050565b60006040820190506118c96000830185611746565b81810360208301526118db8184611706565b90509392505050565b60006060820190506118f96000830186611746565b818103602083015261190b8185611706565b905061191a6040830184611622565b949350505050565b60006040820190506119376000830185611746565b6119446020830184611746565b9392505050565b60006060820190506119606000830186611746565b61196d6020830185611746565b61197a6040830184611746565b949350505050565b60006101a0820190506119986000830189611746565b6119a56020830188611746565b6119b26040830187611746565b6119bf6060830186611746565b6119cc6080830185611631565b6119da610180830184611746565b979650505050505050565b60006119ef611a00565b90506119fb8282611ca0565b919050565b6000604051905090565b600067ffffffffffffffff821115611a2557611a24611d82565b5b611a2e82611db1565b9050602081019050919050565b6000819050919050565b600081519050919050565b6000602082019050919050565b600082825260208201905092915050565b600082825260208201905092915050565b600082825260208201905092915050565b6000611a9f6020840184611346565b905092915050565b6000611ab282611bf1565b9150611abd83611bf1565b9250827fffffffffffffffffffffffffffffffffffffffffffffffffffffffffffffffff03821115611af257611af1611d24565b5b828201905092915050565b6000611b0882611bf1565b9150611b1383611bf1565b9250817fffffffffffffffffffffffffffffffffffffffffffffffffffffffffffffffff0483118215151615611b4c57611b4b611d24565b5b828202905092915050565b6000611b6282611bf1565b9150611b6d83611bf1565b925082821015611b8057611b7f611d24565b5b828203905092915050565b6000611b9682611bfb565b9150611ba183611bfb565b925082821015611bb457611bb3611d24565b5b828203905092915050565b6000611bca82611bd1565b9050919050565b600073ffffffffffffffffffffffffffffffffffffffff82169050919050565b6000819050919050565b600060ff82169050919050565b6000611c1382611c1a565b9050919050565b6000611c2582611bd1565b9050919050565b82818337600083830152505050565b60005b83811015611c59578082015181840152602081019050611c3e565b83811115611c68576000848401525b50505050565b60006002820490506001821680611c8657607f821691505b60208210811415611c9a57611c99611d53565b5b50919050565b611ca982611db1565b810181811067ffffffffffffffff82111715611cc857611cc7611d82565b5b80604052505050565b6000611cdc82611bf1565b91507fffffffffffffffffffffffffffffffffffffffffffffffffffffffffffffffff821415611d0f57611d0e611d24565b5b600182019050919050565b6000819050919050565b7f4e487b7100000000000000000000000000000000000000000000000000000000600052601160045260246000fd5b7f4e487b7100000000000000000000000000000000000000000000000000000000600052602260045260246000fd5b7f4e487b7100000000000000000000000000000000000000000000000000000000600052604160045260246000fd5b6000601f19601f8301169050919050565b611dcb81611bbf565b8114611dd657600080fd5b50565b611de281611bf1565b8114611ded57600080fd5b50565b611df981611bfb565b8114611e0457600080fd5b5056fea26469706673582212204890dd83425c194cd35f996576042a021cfc375f1fcf8e3ef1fa45298f69dbb164736f6c63430008040033",
  "linkReferences": {
    "@zk-kit/incremental-merkle-tree.sol/IncrementalBinaryTree.sol": {
      "IncrementalBinaryTree": [
        {
          "length": 20,
          "start": 3407
        },
        {
          "length": 20,
          "start": 3780
        },
        {
          "length": 20,
          "start": 4036
        }
      ]
    }
  },
  "deployedLinkReferences": {
    "@zk-kit/incremental-merkle-tree.sol/IncrementalBinaryTree.sol": {
      "IncrementalBinaryTree": [
        {
          "length": 20,
          "start": 3099
        },
        {
          "length": 20,
          "start": 3472
        },
        {
          "length": 20,
          "start": 3728
        }
      ]
    }
  }
}